{"abi":[{"type":"constructor","inputs":[],"stateMutability":"nonpayable"},{"type":"function","name":"approve","inputs":[{"name":"to","type":"address","internalType":"address"},{"name":"tokenId","type":"uint256","internalType":"uint256"}],"outputs":[],"stateMutability":"nonpayable"},{"type":"function","name":"balanceOf","inputs":[{"name":"owner","type":"address","internalType":"address"}],"outputs":[{"name":"","type":"uint256","internalType":"uint256"}],"stateMutability":"view"},{"type":"function","name":"calculateRefundAmount","inputs":[{"name":"tokenId","type":"uint256","internalType":"uint256"}],"outputs":[{"name":"","type":"uint256","internalType":"uint256"}],"stateMutability":"view"},{"type":"function","name":"checkIn","inputs":[{"name":"tokenId","type":"uint256","internalType":"uint256"}],"outputs":[],"stateMutability":"nonpayable"},{"type":"function","name":"eventDate","inputs":[],"outputs":[{"name":"","type":"uint256","internalType":"uint256"}],"stateMutability":"view"},{"type":"function","name":"eventId","inputs":[],"outputs":[{"name":"","type":"uint256","internalType":"uint256"}],"stateMutability":"view"},{"type":"function","name":"getApproved","inputs":[{"name":"tokenId","type":"uint256","internalType":"uint256"}],"outputs":[{"name":"","type":"address","internalType":"address"}],"stateMutability":"view"},{"type":"function","name":"getTier","inputs":[{"name":"tierId","type":"uint256","internalType":"uint256"}],"outputs":[{"name":"","type":"tuple","internalType":"struct IEventTicket.TicketTier","components":[{"name":"name","type":"string","internalType":"string"},{"name":"price","type":"uint256","internalType":"uint256"},{"name":"supply","type":"uint256","internalType":"uint256"},{"name":"minted","type":"uint256","internalType":"uint256"},{"name":"metadataUri","type":"string","internalType":"string"}]}],"stateMutability":"view"},{"type":"function","name":"initialize","inputs":[{"name":"_name","type":"string","internalType":"string"},{"name":"_symbol","type":"string","internalType":"string"},{"name":"_eventId","type":"uint256","internalType":"uint256"},{"name":"_eventDate","type":"uint256","internalType":"uint256"},{"name":"_organizer","type":"address","internalType":"address"},{"name":"_verification","type":"address","internalType":"address"},{"name":"_marketplace","type":"address","internalType":"address"},{"name":"_tiers","type":"tuple[]","internalType":"struct IEventTicket.TicketTier[]","components":[{"name":"name","type":"string","internalType":"string"},{"name":"price","type":"uint256","internalType":"uint256"},{"name":"supply","type":"uint256","internalType":"uint256"},{"name":"minted","type":"uint256","internalType":"uint256"},{"name":"metadataUri","type":"string","internalType":"string"}]}],"outputs":[],"stateMutability":"nonpayable"},{"type":"function","name":"isApprovedForAll","inputs":[{"name":"owner","type":"address","internalType":"address"},{"name":"operator","type":"address","internalType":"address"}],"outputs":[{"name":"","type":"bool","internalType":"bool"}],"stateMutability":"view"},{"type":"function","name":"isCheckedIn","inputs":[{"name":"","type":"uint256","internalType":"uint256"}],"outputs":[{"name":"","type":"bool","internalType":"bool"}],"stateMutability":"view"},{"type":"function","name":"marketplace","inputs":[],"outputs":[{"name":"","type":"address","internalType":"contract ITicketMarketplace"}],"stateMutability":"view"},{"type":"function","name":"mint","inputs":[{"name":"tierId","type":"uint256","internalType":"uint256"},{"name":"seatNumber","type":"string","internalType":"string"}],"outputs":[],"stateMutability":"nonpayable"},{"type":"function","name":"name","inputs":[],"outputs":[{"name":"","type":"string","internalType":"string"}],"stateMutability":"view"},{"type":"function","name":"owner","inputs":[],"outputs":[{"name":"","type":"address","internalType":"address"}],"stateMutability":"view"},{"type":"function","name":"ownerOf","inputs":[{"name":"tokenId","type":"uint256","internalType":"uint256"}],"outputs":[{"name":"","type":"address","internalType":"address"}],"stateMutability":"view"},{"type":"function","name":"refundTicket","inputs":[{"name":"tokenId","type":"uint256","internalType":"uint256"}],"outputs":[],"stateMutability":"nonpayable"},{"type":"function","name":"renounceOwnership","inputs":[],"outputs":[],"stateMutability":"nonpayable"},{"type":"function","name":"safeTransferFrom","inputs":[{"name":"from","type":"address","internalType":"address"},{"name":"to","type":"address","internalType":"address"},{"name":"tokenId","type":"uint256","internalType":"uint256"}],"outputs":[],"stateMutability":"nonpayable"},{"type":"function","name":"safeTransferFrom","inputs":[{"name":"from","type":"address","internalType":"address"},{"name":"to","type":"address","internalType":"address"},{"name":"tokenId","type":"uint256","internalType":"uint256"},{"name":"data","type":"bytes","internalType":"bytes"}],"outputs":[],"stateMutability":"nonpayable"},{"type":"function","name":"seatNumbers","inputs":[{"name":"","type":"uint256","internalType":"uint256"}],"outputs":[{"name":"","type":"string","internalType":"string"}],"stateMutability":"view"},{"type":"function","name":"setApprovalForAll","inputs":[{"name":"operator","type":"address","internalType":"address"},{"name":"approved","type":"bool","internalType":"bool"}],"outputs":[],"stateMutability":"nonpayable"},{"type":"function","name":"setUser","inputs":[{"name":"tokenId","type":"uint256","internalType":"uint256"},{"name":"user","type":"address","internalType":"address"},{"name":"expires","type":"uint64","internalType":"uint64"}],"outputs":[],"stateMutability":"nonpayable"},{"type":"function","name":"supportsInterface","inputs":[{"name":"interfaceId","type":"bytes4","internalType":"bytes4"}],"outputs":[{"name":"","type":"bool","internalType":"bool"}],"stateMutability":"view"},{"type":"function","name":"symbol","inputs":[],"outputs":[{"name":"","type":"string","internalType":"string"}],"stateMutability":"view"},{"type":"function","name":"tierCount","inputs":[],"outputs":[{"name":"","type":"uint256","internalType":"uint256"}],"stateMutability":"view"},{"type":"function","name":"tiers","inputs":[{"name":"","type":"uint256","internalType":"uint256"}],"outputs":[{"name":"name","type":"string","internalType":"string"},{"name":"price","type":"uint256","internalType":"uint256"},{"name":"supply","type":"uint256","internalType":"uint256"},{"name":"minted","type":"uint256","internalType":"uint256"},{"name":"metadataUri","type":"string","internalType":"string"}],"stateMutability":"view"},{"type":"function","name":"tokenTier","inputs":[{"name":"","type":"uint256","internalType":"uint256"}],"outputs":[{"name":"","type":"uint256","internalType":"uint256"}],"stateMutability":"view"},{"type":"function","name":"tokenURI","inputs":[{"name":"tokenId","type":"uint256","internalType":"uint256"}],"outputs":[{"name":"","type":"string","internalType":"string"}],"stateMutability":"view"},{"type":"function","name":"totalSupply","inputs":[],"outputs":[{"name":"","type":"uint256","internalType":"uint256"}],"stateMutability":"view"},{"type":"function","name":"transferFrom","inputs":[{"name":"from","type":"address","internalType":"address"},{"name":"to","type":"address","internalType":"address"},{"name":"tokenId","type":"uint256","internalType":"uint256"}],"outputs":[],"stateMutability":"nonpayable"},{"type":"function","name":"transferOwnership","inputs":[{"name":"newOwner","type":"address","internalType":"address"}],"outputs":[],"stateMutability":"nonpayable"},{"type":"function","name":"userExpires","inputs":[{"name":"tokenId","type":"uint256","internalType":"uint256"}],"outputs":[{"name":"","type":"uint256","internalType":"uint256"}],"stateMutability":"view"},{"type":"function","name":"userOf","inputs":[{"name":"tokenId","type":"uint256","internalType":"uint256"}],"outputs":[{"name":"","type":"address","internalType":"address"}],"stateMutability":"view"},{"type":"function","name":"userVerification","inputs":[],"outputs":[{"name":"","type":"address","internalType":"contract IUserVerification"}],"stateMutability":"view"},{"type":"event","name":"Approval","inputs":[{"name":"owner","type":"address","indexed":true,"internalType":"address"},{"name":"approved","type":"address","indexed":true,"internalType":"address"},{"name":"tokenId","type":"uint256","indexed":true,"internalType":"uint256"}],"anonymous":false},{"type":"event","name":"ApprovalForAll","inputs":[{"name":"owner","type":"address","indexed":true,"internalType":"address"},{"name":"operator","type":"address","indexed":true,"internalType":"address"},{"name":"approved","type":"bool","indexed":false,"internalType":"bool"}],"anonymous":false},{"type":"event","name":"CheckedIn","inputs":[{"name":"tokenId","type":"uint256","indexed":true,"internalType":"uint256"}],"anonymous":false},{"type":"event","name":"Initialized","inputs":[{"name":"version","type":"uint64","indexed":false,"internalType":"uint64"}],"anonymous":false},{"type":"event","name":"OwnershipTransferred","inputs":[{"name":"previousOwner","type":"address","indexed":true,"internalType":"address"},{"name":"newOwner","type":"address","indexed":true,"internalType":"address"}],"anonymous":false},{"type":"event","name":"TicketMinted","inputs":[{"name":"to","type":"address","indexed":true,"internalType":"address"},{"name":"tokenId","type":"uint256","indexed":true,"internalType":"uint256"},{"name":"tierId","type":"uint256","indexed":true,"internalType":"uint256"},{"name":"seatNumber","type":"string","indexed":false,"internalType":"string"}],"anonymous":false},{"type":"event","name":"TicketRefunded","inputs":[{"name":"tokenId","type":"uint256","indexed":true,"internalType":"uint256"},{"name":"user","type":"address","indexed":true,"internalType":"address"},{"name":"refundAmount","type":"uint256","indexed":false,"internalType":"uint256"}],"anonymous":false},{"type":"event","name":"Transfer","inputs":[{"name":"from","type":"address","indexed":true,"internalType":"address"},{"name":"to","type":"address","indexed":true,"internalType":"address"},{"name":"tokenId","type":"uint256","indexed":true,"internalType":"uint256"}],"anonymous":false},{"type":"event","name":"UpdateUser","inputs":[{"name":"tokenId","type":"uint256","indexed":true,"internalType":"uint256"},{"name":"user","type":"address","indexed":true,"internalType":"address"},{"name":"expires","type":"uint64","indexed":false,"internalType":"uint64"}],"anonymous":false},{"type":"error","name":"ERC721IncorrectOwner","inputs":[{"name":"sender","type":"address","internalType":"address"},{"name":"tokenId","type":"uint256","internalType":"uint256"},{"name":"owner","type":"address","internalType":"address"}]},{"type":"error","name":"ERC721InsufficientApproval","inputs":[{"name":"operator","type":"address","internalType":"address"},{"name":"tokenId","type":"uint256","internalType":"uint256"}]},{"type":"error","name":"ERC721InvalidApprover","inputs":[{"name":"approver","type":"address","internalType":"address"}]},{"type":"error","name":"ERC721InvalidOperator","inputs":[{"name":"operator","type":"address","internalType":"address"}]},{"type":"error","name":"ERC721InvalidOwner","inputs":[{"name":"owner","type":"address","internalType":"address"}]},{"type":"error","name":"ERC721InvalidReceiver","inputs":[{"name":"receiver","type":"address","internalType":"address"}]},{"type":"error","name":"ERC721InvalidSender","inputs":[{"name":"sender","type":"address","internalType":"address"}]},{"type":"error","name":"ERC721NonexistentToken","inputs":[{"name":"tokenId","type":"uint256","internalType":"uint256"}]},{"type":"error","name":"InvalidInitialization","inputs":[]},{"type":"error","name":"NotInitializing","inputs":[]},{"type":"error","name":"OwnableInvalidOwner","inputs":[{"name":"owner","type":"address","internalType":"address"}]},{"type":"error","name":"OwnableUnauthorizedAccount","inputs":[{"name":"account","type":"address","internalType":"address"}]}],"bytecode":{"object":"0x60806040523461002757610011610036565b61001961002c565b61444b61025c823961444b90f35b610032565b60405190565b5f80fd5b61003e610132565b565b60401c90565b60ff1690565b61005861005d91610040565b610046565b90565b61006a905461004c565b90565b5f0190565b5f1c90565b60018060401b031690565b61008e61009391610072565b610077565b90565b6100a09054610082565b90565b60018060401b031690565b5f1b90565b906100c460018060401b03916100ae565b9181191691161790565b90565b6100e56100e06100ea926100a3565b6100ce565b6100a3565b90565b90565b9061010561010061010c926100d1565b6100ed565b82546100b3565b9055565b610119906100a3565b9052565b9190610130905f60208501940190610110565b565b61013a6101ea565b6101455f8201610060565b6101ce576101545f8201610096565b61016c61016660018060401b036100a3565b916100a3565b03610175575b50565b610188905f60018060401b0391016100f0565b60018060401b036101c57fc7f505b2f371ae2175ee4913f4499e1f2633a7b5936321eed1cdaeb6115181d2916101bc61002c565b9182918261011d565b0390a15f610172565b5f63f92ee8a960e01b8152806101e66004820161006d565b0390fd5b6101f2610247565b90565b5f90565b90565b90565b61021361020e610218926101f9565b6100ae565b6101fc565b90565b6102447ff0c57e16840df040f15088dc2f81fe391c3923bec73e23a9662efc9c229c6a006101ff565b90565b61024f6101f5565b5061025861021b565b9056fe60806040526004361015610013575b611604565b61001d5f3561024c565b806301ffc9a714610247578063039af9eb1461024257806306fdde031461023d578063081812fc14610238578063089cdd0c14610233578063095ea7b31461022e5780630b125c111461022957806318160ddd1461022457806323b872dd1461021f57806342842e0e1461021a5780634bfbe5df146102155780634f062c5a146102105780636352211e1461020b578063649e705f1461020657806370a0823114610201578063715018a6146101fc57806375774100146101f757806377097fc8146101f25780638da5cb5b146101ed5780638fc88c48146101e857806395d89b41146101e357806396b55f7d146101de5780639d696d25146101d9578063a22cb465146101d4578063abc8c7af146101cf578063abdd9744146101ca578063b88d4fde146101c5578063c2f1f14a146101c0578063c87b56dd146101bb578063ca13396a146101b6578063e030565e146101b1578063e95a644f146101ac578063e985e9c5146101a7578063f2fde38b146101a25763f9896ce20361000e576115cf565b611542565b61150c565b6114ac565b611478565b6113d1565b611171565b61113c565b611105565b610ff5565b610f65565b610ec3565b610e3e565b610e09565b610dc5565b610d90565b610d5b565b610d27565b610c0b565b610bd8565b610ba3565b610b50565b610aec565b610ab7565b6109c5565b610982565b61094e565b6108df565b61089b565b6107d2565b610748565b6106c5565b610657565b6105f7565b6102d8565b60e01c90565b60405190565b5f80fd5b5f80fd5b5f80fd5b63ffffffff60e01b1690565b61027981610264565b0361028057565b5f80fd5b9050359061029182610270565b565b906020828203126102ac576102a9915f01610284565b90565b61025c565b151590565b6102bf906102b1565b9052565b91906102d6905f602085019401906102b6565b565b34610308576103046102f36102ee366004610293565b61160c565b6102fb610252565b918291826102c3565b0390f35b610258565b90565b6103198161030d565b0361032057565b5f80fd5b9050359061033182610310565b565b9060208282031261034c57610349915f01610324565b90565b61025c565b90565b61036861036361036d9261030d565b610351565b61030d565b90565b9061037a90610354565b5f5260205260405f2090565b634e487b7160e01b5f52602260045260245ffd5b90600160028304921680156103ba575b60208310146103b557565b610386565b91607f16916103aa565b60209181520190565b5f5260205f2090565b905f92918054906103f06103e98361039a565b80946103c4565b916001811690815f14610447575060011461040b575b505050565b61041891929394506103cd565b915f925b81841061042f57505001905f8080610406565b6001816020929593955484860152019101929061041c565b92949550505060ff19168252151560200201905f8080610406565b9061046c916103d6565b90565b601f801991011690565b634e487b7160e01b5f52604160045260245ffd5b906104979061046f565b810190811067ffffffffffffffff8211176104b157604052565b610479565b906104d66104cf926104c6610252565b93848092610462565b038361048d565b565b5f1c90565b90565b6104ec6104f1916104d8565b6104dd565b90565b6104fe90546104e0565b90565b61050c906005610370565b6105175f82016104b6565b91610524600183016104f4565b91610531600282016104f4565b9161054a6004610543600385016104f4565b93016104b6565b90565b5190565b60209181520190565b90825f9392825e0152565b61058461058d6020936105929361057b8161054d565b93848093610551565b9586910161055a565b61046f565b0190565b61059f9061030d565b9052565b91936105dd6105f496946105d36105c86105e79560a08801908882035f8a0152610565565b976020870190610596565b6040850190610596565b6060830190610596565b6080818403910152610565565b90565b3461062b5761062761061261060d366004610333565b610501565b9161061e959395610252565b958695866105a3565b0390f35b610258565b5f91031261063a57565b61025c565b6106549160208201915f818403910152610565565b90565b3461068757610667366004610630565b61068361067261165d565b61067a610252565b9182918261063f565b0390f35b610258565b60018060a01b031690565b6106a09061068c565b90565b6106ac90610697565b9052565b91906106c3905f602085019401906106a3565b565b346106f5576106f16106e06106db366004610333565b61167f565b6106e8610252565b918291826106b0565b0390f35b610258565b1c90565b61070e90600861071393026106fa565b6104dd565b90565b9061072191546106fe565b90565b61073060025f90610716565b90565b9190610746905f60208501940190610596565b565b3461077857610758366004610630565b610774610763610724565b61076b610252565b91829182610733565b0390f35b610258565b61078681610697565b0361078d57565b5f80fd5b9050359061079e8261077d565b565b91906040838203126107c857806107bc6107c5925f8601610791565b93602001610324565b90565b61025c565b5f0190565b34610801576107eb6107e53660046107a0565b9061169e565b6107f3610252565b806107fd816107cd565b0390f35b610258565b60018060a01b031690565b61082190600861082693026106fa565b610806565b90565b906108349154610811565b90565b6108425f5f90610829565b90565b61085961085461085e9261068c565b610351565b61068c565b90565b61086a90610845565b90565b61087690610861565b90565b6108829061086d565b9052565b9190610899905f60208501940190610879565b565b346108cb576108ab366004610630565b6108c76108b6610837565b6108be610252565b91829182610886565b0390f35b610258565b6108dc60035f90610716565b90565b3461090f576108ef366004610630565b61090b6108fa6108d0565b610902610252565b91829182610733565b0390f35b610258565b90916060828403126109495761094661092f845f8501610791565b9361093d8160208601610791565b93604001610324565b90565b61025c565b3461097d57610967610961366004610914565b91611852565b61096f610252565b80610979816107cd565b0390f35b610258565b346109b15761099b610995366004610914565b9161195c565b6109a3610252565b806109ad816107cd565b0390f35b610258565b6109c260045f90610716565b90565b346109f5576109d5366004610630565b6109f16109e06109b6565b6109e8610252565b91829182610733565b0390f35b610258565b610a19610a22602093610a2793610a108161054d565b938480936103c4565b9586910161055a565b61046f565b0190565b610a349061030d565b9052565b610a9c916080610a5560a083015f8501518482035f8601526109fa565b92610a6860208201516020850190610a2b565b610a7a60408201516040850190610a2b565b610a8c60608201516060850190610a2b565b01519060808184039101526109fa565b90565b610ab49160208201915f818403910152610a38565b90565b34610ae757610ae3610ad2610acd366004610333565b611a7b565b610ada610252565b91829182610a9f565b0390f35b610258565b34610b1c57610b18610b07610b02366004610333565b611a9a565b610b0f610252565b918291826106b0565b0390f35b610258565b90610b2b90610354565b5f5260205260405f2090565b610b4d90610b486007915f92610b21565b610716565b90565b34610b8057610b7c610b6b610b66366004610333565b610b37565b610b73610252565b91829182610733565b0390f35b610258565b90602082820312610b9e57610b9b915f01610791565b90565b61025c565b34610bd357610bcf610bbe610bb9366004610b85565b611ac9565b610bc6610252565b91829182610733565b0390f35b610258565b34610c0657610be8366004610630565b610bf0611b5e565b610bf8610252565b80610c02816107cd565b0390f35b610258565b34610c3957610c23610c1e366004610333565b612089565b610c2b610252565b80610c35816107cd565b0390f35b610258565b5f80fd5b5f80fd5b90610c59610c52610252565b928361048d565b565b67ffffffffffffffff8111610c7957610c7560209161046f565b0190565b610479565b90825f939282370152565b90929192610c9e610c9982610c5b565b610c46565b93818552602085019082840111610cba57610cb892610c7e565b565b610c42565b9080601f83011215610cdd57816020610cda93359101610c89565b90565b610c3e565b919091604081840312610d2257610cfb835f8301610324565b92602082013567ffffffffffffffff8111610d1d57610d1a9201610cbf565b90565b610260565b61025c565b34610d5657610d40610d3a366004610ce2565b906125f9565b610d48610252565b80610d52816107cd565b0390f35b610258565b34610d8b57610d6b366004610630565b610d87610d7661287c565b610d7e610252565b918291826106b0565b0390f35b610258565b34610dc057610dbc610dab610da6366004610333565b6128ea565b610db3610252565b91829182610733565b0390f35b610258565b34610df557610dd5366004610630565b610df1610de0612913565b610de8610252565b9182918261063f565b0390f35b610258565b610e0660065f90610716565b90565b34610e3957610e19366004610630565b610e35610e24610dfa565b610e2c610252565b91829182610733565b0390f35b610258565b34610e6e57610e6a610e59610e54366004610333565b612a47565b610e61610252565b91829182610733565b0390f35b610258565b610e7c816102b1565b03610e8357565b5f80fd5b90503590610e9482610e73565b565b9190604083820312610ebe5780610eb2610ebb925f8601610791565b93602001610e87565b90565b61025c565b34610ef257610edc610ed6366004610e96565b90612b46565b610ee4610252565b80610eee816107cd565b0390f35b610258565b60018060a01b031690565b610f12906008610f1793026106fa565b610ef7565b90565b90610f259154610f02565b90565b610f3460015f90610f1a565b90565b610f4090610861565b90565b610f4c90610f37565b9052565b9190610f63905f60208501940190610f43565b565b34610f9557610f75366004610630565b610f91610f80610f28565b610f88610252565b91829182610f50565b0390f35b610258565b90610fa490610354565b5f5260205260405f2090565b60ff1690565b610fc6906008610fcb93026106fa565b610fb0565b90565b90610fd99154610fb6565b90565b610ff290610fed6009915f92610f9a565b610fce565b90565b346110255761102161101061100b366004610333565b610fdc565b611018610252565b918291826102c3565b0390f35b610258565b67ffffffffffffffff81116110485761104460209161046f565b0190565b610479565b9092919261106261105d8261102a565b610c46565b9381855260208501908284011161107e5761107c92610c7e565b565b610c42565b9080601f830112156110a15781602061109e9335910161104d565b90565b610c3e565b90608082820312611100576110bd815f8401610791565b926110cb8260208501610791565b926110d98360408301610324565b92606082013567ffffffffffffffff81116110fb576110f89201611083565b90565b610260565b61025c565b34611137576111216111183660046110a6565b92919091612b5c565b611129610252565b80611133816107cd565b0390f35b610258565b3461116c57611168611157611152366004610333565b612c3a565b61115f610252565b918291826106b0565b0390f35b610258565b346111a15761119d61118c611187366004610333565b612c9e565b611194610252565b9182918261063f565b0390f35b610258565b67ffffffffffffffff81116111be5760208091020190565b610479565b5f80fd5b5f80fd5b5f80fd5b91909160a08184031261126f576111e660a0610c46565b925f82013567ffffffffffffffff811161126a5781611206918401610cbf565b5f8501526112178160208401610324565b60208501526112298160408401610324565b604085015261123b8160608401610324565b6060850152608082013567ffffffffffffffff81116112655761125e9201610cbf565b6080830152565b6111cb565b6111cb565b6111c7565b929190611288611283826111a6565b610c46565b93818552602080860192028101918383116112df5781905b8382106112ae575050505050565b813567ffffffffffffffff81116112da576020916112cf87849387016111cf565b8152019101906112a0565b610c3e565b6111c3565b9080601f83011215611302578160206112ff93359101611274565b90565b610c3e565b919091610100818403126113cc575f81013567ffffffffffffffff81116113c75783611334918301610cbf565b92602082013567ffffffffffffffff81116113c25781611355918401610cbf565b926113638260408501610324565b926113718360608301610324565b9261137f8160808401610791565b9261138d8260a08501610791565b9261139b8360c08301610791565b9260e082013567ffffffffffffffff81116113bd576113ba92016112e4565b90565b610260565b610260565b610260565b61025c565b34611409576113f36113e4366004611307565b969590959491949392936131cb565b6113fb610252565b80611405816107cd565b0390f35b610258565b67ffffffffffffffff1690565b6114248161140e565b0361142b57565b5f80fd5b9050359061143c8261141b565b565b909160608284031261147357611470611459845f8501610324565b936114678160208601610791565b9360400161142f565b90565b61025c565b346114a75761149161148b36600461143e565b91613313565b611499610252565b806114a3816107cd565b0390f35b610258565b346114da576114c46114bf366004610333565b6134f5565b6114cc610252565b806114d6816107cd565b0390f35b610258565b919060408382031261150757806114fb611504925f8601610791565b93602001610791565b90565b61025c565b3461153d576115396115286115223660046114df565b9061352c565b611530610252565b918291826102c3565b0390f35b610258565b346115705761155a611555366004610b85565b6135c2565b611562610252565b8061156c816107cd565b0390f35b610258565b9061157f90610354565b5f5260205260405f2090565b634e487b7160e01b5f525f60045260245ffd5b905f106115b1576115ae906104b6565b90565b61158b565b6115cc906115c76008915f92611575565b61159e565b90565b346115ff576115fb6115ea6115e5366004610333565b6115b6565b6115f2610252565b9182918261063f565b0390f35b610258565b5f80fd5b5f90565b611614611608565b508061162f611629632b424ad760e21b610264565b91610264565b1490811561163c575b5090565b61164691506135cd565b5f611638565b606090565b61165a906104b6565b90565b61166561164c565b506116785f611672613635565b01611651565b90565b5f90565b61169b9061168b61167b565b5061169581613659565b506136c5565b90565b906116b291906116ac6136ed565b916136fa565b565b6116c06116c5916104d8565b610fb0565b90565b6116d290546116b4565b90565b60207f6f756e6429000000000000000000000000000000000000000000000000000000917f5469636b657420616c726561647920636865636b656420696e2028536f756c625f8201520152565b61172f6025604092610551565b611738816116d5565b0190565b6117519060208101905f818303910152611722565b90565b1561175b57565b611763610252565b62461bcd60e51b8152806117796004820161173c565b0390fd5b9061178790610354565b5f5260205260405f2090565b60018060a01b031690565b6117aa6117af916104d8565b611793565b90565b6117bc905461179e565b90565b90565b6117d66117d16117db926117bf565b610351565b61068c565b90565b6117e7906117c2565b90565b5f80910155565b905f0361180357611801906117ea565b565b61158b565b61181190610861565b90565b61182861182361182d926117bf565b610351565b61140e565b90565b61183990611814565b9052565b9190611850905f60208501940190611830565b565b906118849161187c61187761187161186c60098890610f9a565b6116c8565b156102b1565b611754565b90839161373c565b61189a5f611894600a849061177d565b016117b2565b6118b46118ae6118a95f6117de565b610697565b91610697565b036118bd575b50565b6118d25f6118cd600a849061177d565b6117f1565b6118db5f6117de565b5f9161192561191361190d7f4e06b4e7000e659094299b3533b47b6aa8ad048e95e872d23d1f4ee55af89cfe93610354565b93611808565b9361191c610252565b9182918261183d565b0390a35f6118ba565b9061194061193b83610c5b565b610c46565b918252565b61194e5f61192e565b90565b611959611945565b90565b91611970929161196a611951565b92612b5c565b565b61197c60a0610c46565b90565b606090565b5f90565b611990611972565b90602080808080866119a061197f565b8152016119ab611984565b8152016119b6611984565b8152016119c1611984565b8152016119cc61197f565b81525050565b6119da611988565b90565b52565b906119ea9061030d565b9052565b90611a6d611a6460046119ff611972565b94611a16611a0e5f83016104b6565b5f88016119dd565b611a2e611a25600183016104f4565b602088016119e0565b611a46611a3d600283016104f4565b604088016119e0565b611a5e611a55600383016104f4565b606088016119e0565b016104b6565b608084016119dd565b565b611a78906119ee565b90565b611a92611a9791611a8a6119d2565b506005610370565b611a6f565b90565b611aac90611aa661167b565b50613659565b90565b5f90565b90611abd90611808565b5f5260205260405f2090565b611ad1611aaf565b50611ada613635565b81611af5611aef611aea5f6117de565b610697565b91610697565b14611b1257611b0f916003611b0a9201611ab3565b6104f4565b90565b611b35611b1e5f6117de565b5f9182916322718ad960e21b8352600483016106b0565b0390fd5b611b416137d7565b611b49611b4b565b565b611b5c611b575f6117de565b613825565b565b611b66611b39565b565b5f7f4e6f74207469636b6574206f776e657200000000000000000000000000000000910152565b611b9c6010602092610551565b611ba581611b68565b0190565b611bbe9060208101905f818303910152611b8f565b90565b15611bc857565b611bd0610252565b62461bcd60e51b815280611be660048201611ba9565b0390fd5b5f7f4576656e7420616c726561647920737461727465640000000000000000000000910152565b611c1e6015602092610551565b611c2781611bea565b0190565b611c409060208101905f818303910152611c11565b90565b15611c4a57565b611c52610252565b62461bcd60e51b815280611c6860048201611c2b565b0390fd5b5f7f416c726561647920636865636b656420696e0000000000000000000000000000910152565b611ca06012602092610551565b611ca981611c6c565b0190565b611cc29060208101905f818303910152611c93565b90565b15611ccc57565b611cd4610252565b62461bcd60e51b815280611cea60048201611cad565b0390fd5b90611d01905f19906020036008026106fa565b8154169055565b1b90565b91906008611d27910291611d215f1984611d08565b92611d08565b9181191691161790565b90565b9190611d4a611d45611d5293610354565b611d31565b908354611d0c565b9055565b611d6891611d62611aaf565b91611d34565b565b5b818110611d76575050565b80611d835f600193611d56565b01611d6b565b90611d99905f19906008026106fa565b191690565b81611da891611d89565b906002021790565b905f91611dc7611dbf826103cd565b928354611d9e565b905555565b601f602091010490565b919290602082105f14611e2f57601f8411600114611dff57611df9929350611d9e565b90555b5b565b5090611e25611e2a936001611e1c611e16856103cd565b92611dcc565b82019101611d6a565b611db0565b611dfc565b50611e668293611e406001946103cd565b611e5f611e4c85611dcc565b820192601f861680611e71575b50611dcc565b0190611d6a565b600202179055611dfd565b611e7d90888603611cee565b5f611e59565b929091680100000000000000008211611ee3576020115f14611ed457602081105f14611eb857611eb291611d9e565b90555b5b565b60019160ff1916611ec8846103cd565b55600202019055611eb5565b60019150600202019055611eb6565b610479565b908154611ef48161039a565b90818311611f1d575b818310611f0b575b50505050565b611f1493611dd6565b5f808080611f05565b611f2983838387611e83565b611efd565b634e487b7160e01b5f52601160045260245ffd5b611f51611f579193929361030d565b9261030d565b91611f6383820261030d565b928184041490151715611f7257565b611f2e565b5f611f8191611ee8565b565b905f03611f9557611f9390611f77565b565b61158b565b611fae611fa9611fb3926117bf565b610351565b61030d565b90565b611fbf9061030d565b5f8114611fcd576001900390565b611f2e565b5f1b90565b90611fe35f1991611fd2565b9181191691161790565b90612002611ffd61200992610354565b611d31565b8254611fd7565b9055565b61201961201e916104d8565b610ef7565b90565b61202b905461200d565b90565b5f80fd5b60e01b90565b5f91031261204257565b61025c565b604090612070612077949695939661206660608401985f8501906106a3565b60208301906106a3565b0190610596565b565b612081610252565b3d5f823e3d90fd5b6120ad61209582611a9a565b6120a76120a133610697565b91610697565b14611bc1565b6120d2426120cc6120c66120c160046104f4565b61030d565b9161030d565b10611c43565b6120f76120f26120ec6120e760098590610f9a565b6116c8565b156102b1565b611cc5565b61210081612a47565b9061210a81613891565b61211f5f61211a60088490611575565b611f83565b61213361212e60078390610b21565b6104f4565b61214a600361214460058490610370565b016104f4565b61215c6121565f611f9a565b9161030d565b11612262575b506121785f61217360078490610b21565b611d56565b61218a6121856001612021565b610f37565b63b9fc60463361219861287c565b928592813b1561225d575f6121c0916121cb82966121b4610252565b98899788968795612032565b855260048501612047565b03925af180156122585761222c575b509033909161222761221561220f7f8c8fd3da31954f4657d981e2a89ea3421ef5d7bfa0998012eaff5f24a61a867a93610354565b93611808565b9361221e610252565b91829182610733565b0390a3565b61224b905f3d8111612251575b612243818361048d565b810190612038565b5f6121da565b503d612239565b612079565b61202e565b600361227261228a926005610370565b0161228461227f826104f4565b611fb6565b90611fed565b5f612162565b5f7f496e76616c696420746965720000000000000000000000000000000000000000910152565b6122c4600c602092610551565b6122cd81612290565b0190565b6122e69060208101905f8183039101526122b7565b90565b156122f057565b6122f8610252565b62461bcd60e51b81528061230e600482016122d1565b0390fd5b90565b5f7f5469657220736f6c64206f757400000000000000000000000000000000000000910152565b612349600d602092610551565b61235281612315565b0190565b61236b9060208101905f81830391015261233c565b90565b1561237557565b61237d610252565b62461bcd60e51b81528061239360048201612356565b0390fd5b6123a36123a8916104d8565b610806565b90565b6123b59054612397565b90565b905051906123c582610e73565b565b906020828203126123e0576123dd915f016123b8565b90565b61025c565b5f7f55736572206e6f74207665726966696564000000000000000000000000000000910152565b6124196011602092610551565b612422816123e5565b0190565b61243b9060208101905f81830391015261240c565b90565b1561244557565b61244d610252565b62461bcd60e51b81528061246360048201612426565b0390fd5b90565b61247e61247961248392612467565b610351565b61030d565b90565b61249561249b9193929361030d565b9261030d565b82018092116124a657565b611f2e565b6124b49061030d565b5f1981146124c25760010190565b611f2e565b9190601f81116124d7575b505050565b6124e3612508936103cd565b9060206124ef84611dcc565b83019310612510575b61250190611dcc565b0190611d6a565b5f80806124d2565b9150612501819290506124f8565b906125288161054d565b9067ffffffffffffffff82116125e85761254c82612546855461039a565b856124c7565b602090601f83116001146125805791809161256f935f92612574575b5050611d9e565b90555b565b90915001515f80612568565b601f1983169161258f856103cd565b925f5b8181106125d0575091600293918560019694106125b6575b50505002019055612572565b6125c6910151601f841690611d89565b90555f80806125aa565b91936020600181928787015181550195019201612592565b610479565b906125f79161251e565b565b9061261f8261261961261361260e60066104f4565b61030d565b9161030d565b106122e9565b61263361262e60058490610370565b612312565b91612666612643600385016104f4565b61266061265a612655600288016104f4565b61030d565b9161030d565b1061236e565b6126a6602061267c6126775f6123ab565b61086d565b63b9209e339061269b339261268f610252565b95869485938493612032565b8352600483016106b0565b03915afa8015612877576126c1915f91612849575b5061243e565b6126d36126ce6001612021565b610f37565b63a62181a0336126e161287c565b926126ee600188016104f4565b92813b15612844575f6127149161271f8296612708610252565b98899788968795612032565b855260048501612047565b03925af1801561283f57612813575b506127836003612750612740826104f4565b61274a600161246a565b90612486565b9461276b612765612760846104f4565b6124ab565b83611fed565b0161277d612778826104f4565b6124ab565b90611fed565b6127988161279360078690610b21565b611fed565b6127ad826127a860088690611575565b6125ed565b6127b83384906138ee565b339290919261280e6127fc6127f66127f07fb89988e1d3e88c0f1c82060eacd83b1eeff9d84e2dceb882de0781fbb7c04fc594611808565b94610354565b94610354565b94612805610252565b9182918261063f565b0390a4565b612832905f3d8111612838575b61282a818361048d565b810190612038565b5f61272e565b503d612820565b612079565b61202e565b61286a915060203d8111612870575b612862818361048d565b8101906123c7565b5f6126bb565b503d612858565b612079565b61288461167b565b506128975f612891613904565b016117b2565b90565b60a01c90565b67ffffffffffffffff1690565b6128b96128be9161289a565b6128a0565b90565b6128cb90546128ad565b90565b6128e26128dd6128e79261140e565b610351565b61030d565b90565b61290b5f612905612910936128fd611aaf565b50600a61177d565b016128c1565b6128ce565b90565b61291b61164c565b5061292f6001612929613635565b01611651565b90565b6129416129479193929361030d565b9261030d565b820391821161295257565b611f2e565b90565b61296e61296961297392612957565b610351565b61030d565b90565b90565b61298d61298861299292612976565b610351565b61030d565b90565b90565b6129ac6129a76129b192612995565b610351565b61030d565b90565b90565b6129cb6129c66129d0926129b4565b610351565b61030d565b90565b634e487b7160e01b5f52601260045260245ffd5b6129f36129f99161030d565b9161030d565b908115612a04570490565b6129d3565b90565b612a20612a1b612a2592612a09565b610351565b61030d565b90565b90565b612a3f612a3a612a4492612a28565b610351565b61030d565b90565b612a4f611aaf565b50612a8e6001612a88612a6c612a6560046104f4565b4290612932565b93612a82612a7d6005926007610b21565b6104f4565b90610370565b016104f4565b9080612aa5612a9f62278d0061295a565b9161030d565b1015612b425780612ac1612abb62093a80612979565b9161030d565b11612b1757612adb612ad562015180612a0c565b9161030d565b11612aed5750612aea5f611f9a565b90565b612b04612b1491612afe6032612a2b565b90611f42565b612b0e60646129b7565b906129e7565b90565b50612b2f612b3f91612b29604b612998565b90611f42565b612b3960646129b7565b906129e7565b90565b5090565b612b5a91612b526136ed565b919091613928565b565b92612b909293612b87612b82612b7c612b7760098990610f9a565b6116c8565b156102b1565b611754565b918491926139e4565b612ba65f612ba0600a849061177d565b016117b2565b612bc0612bba612bb55f6117de565b610697565b91610697565b03612bc9575b50565b612bde5f612bd9600a849061177d565b6117f1565b612be75f6117de565b5f91612c31612c1f612c197f4e06b4e7000e659094299b3533b47b6aa8ad048e95e872d23d1f4ee55af89cfe93610354565b93611808565b93612c28610252565b9182918261183d565b0390a35f612bc6565b612c4261167b565b50612c61612c5c5f612c56600a859061177d565b016128c1565b6128ce565b612c73612c6d4261030d565b9161030d565b1015612c865750612c835f6117de565b90565b5f612c95612c9b92600a61177d565b016117b2565b90565b6004612cd5612cdb92612caf61164c565b50612cb981613659565b50612ccf612cca6005926007610b21565b6104f4565b90610370565b01611651565b90565b60401c90565b612cf0612cf591612cde565b610fb0565b90565b612d029054612ce4565b90565b612d11612d16916104d8565b6128a0565b90565b612d239054612d05565b90565b612d3a612d35612d3f92612467565b610351565b61140e565b90565b612d4b90610861565b90565b90612d6167ffffffffffffffff91611fd2565b9181191691161790565b612d7f612d7a612d849261140e565b610351565b61140e565b90565b90565b90612d9f612d9a612da692612d6b565b612d87565b8254612d4e565b9055565b60401b90565b90612dc468ff000000000000000091612daa565b9181191691161790565b612dd7906102b1565b90565b90565b90612df2612ded612df992612dce565b612dda565b8254612db0565b9055565b612e0690612d26565b9052565b9190612e1d905f60208501940190612dfd565b565b94919693909592612e2e613a0a565b97612e43612e3d5f8b01612cf8565b156102b1565b97612e4f5f8b01612d19565b80612e62612e5c5f611814565b9161140e565b1480612f7c575b90612e7d612e776001612d26565b9161140e565b1480612f54575b612e8f9091156102b1565b9081612f43575b50612f2757612ebf97612eb4612eac6001612d26565b5f8d01612d8a565b89612f15575b61310e565b612ec7575b50565b612ed4905f809101612ddd565b6001612f0c7fc7f505b2f371ae2175ee4913f4499e1f2633a7b5936321eed1cdaeb6115181d291612f03610252565b91829182612e0a565b0390a15f612ec4565b612f2260015f8d01612ddd565b612eba565b5f63f92ee8a960e01b815280612f3f600482016107cd565b0390fd5b612f4e9150156102b1565b5f612e96565b50612e8f612f6130612d42565b3b612f74612f6e5f611f9a565b9161030d565b149050612e84565b5089612e69565b612f8c90610845565b90565b612f9890612f83565b90565b90612fac60018060a01b0391611fd2565b9181191691161790565b612fbf90612f83565b90565b90565b90612fda612fd5612fe192612fb6565b612fc2565b8254612f9b565b9055565b612fee90610845565b90565b612ffa90612fe5565b90565b61300690612fe5565b90565b90565b9061302161301c61302892612ffd565b613009565b8254612f9b565b9055565b6001613038910161030d565b90565b5190565b634e487b7160e01b5f52603260045260245ffd5b9061305d8261303b565b81101561306e576020809102010190565b61303f565b5190565b613081905161030d565b90565b906130fa60806004613100946130a75f82016130a15f8801613073565b906125ed565b6130c0600182016130ba60208801613077565b90611fed565b6130d9600282016130d360408801613077565b90611fed565b6130f2600382016130ec60608801613077565b90611fed565b019201613073565b906125ed565b565b9061310c91613084565b565b6131509361313e61314a9461313761315c9a986131326131559b9761314597613a35565b613a5f565b6002611fed565b6004611fed565b612f8f565b5f612fc5565b612ff1565b600161300c565b6131655f611f9a565b5b8061318161317b6131768561303b565b61030d565b9161030d565b10156131b5576131b0906131ab613199848390613053565b516131a660058490610370565b613102565b61302c565b613166565b506131c26131c99161303b565b6006611fed565b565b906131db97969594939291612e1f565b565b60207f776e6572206e6f7220617070726f766564000000000000000000000000000000917f4552433732313a207472616e736665722063616c6c6572206973206e6f74206f5f8201520152565b6132376031604092610551565b613240816131dd565b0190565b6132599060208101905f81830391015261322a565b90565b1561326357565b61326b610252565b62461bcd60e51b81528061328160048201613244565b0390fd5b90565b90565b906132a061329b6132a792611808565b613288565b8254612f9b565b9055565b60a01b90565b906132c767ffffffffffffffff60a01b916132ab565b9181191691161790565b906132e66132e16132ed92612d6b565b612d87565b82546132b1565b9055565b6132fa9061140e565b9052565b9190613311905f602085019401906132f1565b565b919091613329613324338390613a6a565b61325c565b61335561334061333b600a849061177d565b613285565b61334c855f830161328b565b5f8491016132d1565b9190916133a061338e6133887f4e06b4e7000e659094299b3533b47b6aa8ad048e95e872d23d1f4ee55af89cfe93610354565b93611808565b93613397610252565b918291826132fe565b0390a3565b6133b6906133b16137d7565b613470565b565b5f7f496e76616c696420746f6b656e00000000000000000000000000000000000000910152565b6133ec600d602092610551565b6133f5816133b8565b0190565b61340e9060208101905f8183039101526133df565b90565b1561341857565b613420610252565b62461bcd60e51b815280613436600482016133f9565b0390fd5b9061344660ff91611fd2565b9181191691161790565b9061346561346061346c92612dce565b612dda565b825461343a565b9055565b61349d61347c82611a9a565b61349661349061348b5f6117de565b610697565b91610697565b1415613411565b6134b360016134ae60098490610f9a565b613450565b6134dd7f10114a3921e255a9ca7fe6729a90430550edc377c3a1f0a2b2456d778f85218491610354565b906134e6610252565b806134f0816107cd565b0390a2565b6134fe906133a5565b565b9061350a90611808565b5f5260205260405f2090565b9061352090611808565b5f5260205260405f2090565b61355a916135506135559261353f611608565b50600561354a613635565b01613500565b613516565b6116c8565b90565b61356e906135696137d7565b613570565b565b8061358b6135856135805f6117de565b610697565b91610697565b1461359b5761359990613825565b565b6135be6135a75f6117de565b5f918291631e4fbdf760e01b8352600483016106b0565b0390fd5b6135cb9061355d565b565b6135d5611608565b50806135f06135ea6380ac58cd60e01b610264565b91610264565b148015613614575b908115613604575b5090565b61360e9150613adb565b5f613600565b508061362f613629635b5e139f60e01b610264565b91610264565b146135f8565b7f80bb2b638cc20bc4d0a60d66940f3ab4a00c1d7b313497ca82fb0b4ab007930090565b61366161167b565b5061366b81613b01565b908161368761368161367c5f6117de565b610697565b91610697565b14613690575090565b6136ab905f918291637e27328960e01b835260048301610733565b0390fd5b906136b990610354565b5f5260205260405f2090565b6136e56136ea916136d461167b565b5060046136df613635565b016136af565b6117b2565b90565b6136f561167b565b503390565b916137089291600192613b29565b565b60409061373361373a949695939661372960608401985f8501906106a3565b6020830190610596565b01906106a3565b565b91908061375961375361374e5f6117de565b610697565b91610697565b146137b057613771908261376b6136ed565b91613ca0565b918261378561377f83610697565b91610697565b0361378f57505050565b6137ac9091925f9384936364283d7b60e01b85526004850161370a565b0390fd5b6137d36137bc5f6117de565b5f918291633250574960e11b8352600483016106b0565b0390fd5b6137df61287c565b6137f86137f26137ed6136ed565b610697565b91610697565b036137ff57565b61382161380a6136ed565b5f91829163118cdaa760e01b8352600483016106b0565b0390fd5b61382d613904565b61384561383b5f83016117b2565b915f84910161328b565b906138796138737f8be0079c531659141344cd1fd0a4f28419497f9722a3daafe3b4186f6b6457e093611808565b91611808565b91613882610252565b8061388c816107cd565b0390a3565b6138ad61389d5f6117de565b826138a75f6117de565b91613ca0565b6138c76138c16138bc5f6117de565b610697565b91610697565b146138cf5750565b6138ea905f918291637e27328960e01b835260048301610733565b0390fd5b9061390291906138fc611951565b91613e2f565b565b7f9016d09d72d40fdae2fd8ceac6b6234c7706214fd39c1cd1e609a0528c19930090565b919091613933613635565b8361394e6139486139435f6117de565b610697565b91610697565b146139c5576139759061397061396960058693018590613500565b8690613516565b613450565b9190916139c06139ae6139a87f17307eab39ab6107e8899845ad3d59bd9653f200f220920489ca2b5937696c3193611808565b93611808565b936139b7610252565b918291826102c3565b0390a3565b6139e0845f918291630b61174360e31b8352600483016106b0565b0390fd5b91613a0893916139f684828491611852565b6139fe6136ed565b9390919293613f74565b565b613a1261411a565b90565b90613a2791613a2261412e565b613a29565b565b90613a3391614198565b565b90613a3f91613a15565b565b613a5290613a4d61412e565b613a54565b565b613a5d90614209565b565b613a6890613a41565b565b613a72611608565b50613a7c82611a9a565b9181613a90613a8a85610697565b91610697565b14908115613ab8575b50918215613aa7575b505090565b613ab1925061352c565b5f80613aa2565b613ac2915061167f565b613ad4613ace83610697565b91610697565b145f613a99565b613ae3611608565b50613afd613af76301ffc9a760e01b610264565b91610264565b1490565b613b21613b2691613b1061167b565b506002613b1b613635565b016136af565b6117b2565b90565b9091613b33613635565b93808015613c61575b613b5c575b5050613b5a92916004613b559293016136af565b61328b565b565b613b6584613659565b9180613b81613b7b613b765f6117de565b610697565b91610697565b141580613c46575b80613c2c575b613c0d5750613b5592613b5a959492600492613bb2575b50925081939450613b41565b818490613bf1613beb613be57f8c5be1e5ebec7d5bd14f71427d1e84f3dd0314c0f7b2291e5b200ac8c7c3b92595611808565b92611808565b92610354565b92613bfa610252565b80613c04816107cd565b0390a45f613ba6565b613c28905f91829163a9fbf51f60e01b8352600483016106b0565b0390fd5b50613c41613c3b84839061352c565b156102b1565b613b8f565b5082613c5a613c5483610697565b91610697565b1415613b89565b5081613c7d613c77613c725f6117de565b610697565b91610697565b1415613b3c565b90613c8f910361030d565b90565b90613c9d910161030d565b90565b90613ca961167b565b50613d37613cb5613635565b613cbe83613b01565b9480613cda613cd4613ccf5f6117de565b610697565b91610697565b03613e1c575b5084613cfc613cf6613cf15f6117de565b610697565b91610697565b03613dc6575b83613d1d613d17613d125f6117de565b610697565b91610697565b03613d8e575b613d32600285920184906136af565b61328b565b8291613d75613d6f613d697fddf252ad1be2c89b69c2b068fc378daa952ba7f163c4a11628f55a4df523b3ef95611808565b92611808565b92610354565b92613d7e610252565b80613d88816107cd565b0390a490565b613dc1613d9b600161246a565b613dbb613dac600385018890611ab3565b91613db6836104f4565b613c92565b90611fed565b613d23565b613de4613dd25f6117de565b84613ddc5f6117de565b905f92613b29565b613e17613df1600161246a565b613e11613e02600385018990611ab3565b91613e0c836104f4565b613c84565b90611fed565b613d02565b613e299086908591614237565b5f613ce0565b9091613e5b92613e408382906142b3565b613e486136ed565b92613e525f6117de565b90919293613f74565b565b613e6690610845565b90565b613e7290613e5d565b90565b613e7e90610861565b90565b90505190613e8e82610270565b565b90602082820312613ea957613ea6915f01613e81565b90565b61025c565b5190565b60209181520190565b613eda613ee3602093613ee893613ed181613eae565b93848093613eb2565b9586910161055a565b61046f565b0190565b9092613f1f90613f15613f2c9694613f0b60808601975f8701906106a3565b60208501906106a3565b6040830190610596565b6060818403910152613ebb565b90565b90613f41613f3c8361102a565b610c46565b918252565b606090565b3d5f14613f6657613f5b3d613f2f565b903d5f602084013e5b565b613f6e613f46565b90613f64565b9193843b613f8a613f845f611f9a565b9161030d565b11613f97575b5050505050565b613fcf5f602094613fda613fb2613fad8a613e69565b613e75565b9463150b7a02929698613fc3610252565b998a9889978896612032565b865260048601613eec565b03925af180915f92614098575b50155f146140555750600161400257505b5f80808080613f90565b61400a613f4b565b9061401482613eae565b6140266140205f611f9a565b9161030d565b145f1461404c57614048905f918291633250574960e11b8352600483016106b0565b0390fd5b50602081519101fd5b61406e614068630a85bd0160e11b610264565b91610264565b036140795750613ff8565b614094905f918291633250574960e11b8352600483016106b0565b0390fd5b6140ba91925060203d81116140c1575b6140b2818361048d565b810190613e90565b905f613fe7565b503d6140a8565b5f90565b90565b90565b6140e66140e16140eb926140cc565b611fd2565b6140cf565b90565b6141177ff0c57e16840df040f15088dc2f81fe391c3923bec73e23a9662efc9c229c6a006140d2565b90565b6141226140c8565b5061412b6140ee565b90565b61413f614139614357565b156102b1565b61414557565b5f631afcd79f60e31b81528061415d600482016107cd565b0390fd5b906141739161416e61412e565b614175565b565b60016141969261418f614186613635565b935f85016125ed565b91016125ed565b565b906141a291614161565b565b6141b5906141b061412e565b6141b7565b565b806141d26141cc6141c75f6117de565b610697565b91610697565b146141e2576141e090613825565b565b6142056141ee5f6117de565b5f918291631e4fbdf760e01b8352600483016106b0565b0390fd5b614212906141a4565b565b91602061423592949361422e60408201965f8301906106a3565b0190610596565b565b61424c61424682848691614375565b156102b1565b61425557505050565b61426f6142696142645f6117de565b610697565b91610697565b145f1461429557614291825f918291637e27328960e01b835260048301610733565b0390fd5b6142af5f92839263177e802f60e01b845260048401614214565b0390fd5b90816142cf6142c96142c45f6117de565b610697565b91610697565b14614330576142e891906142e25f6117de565b91613ca0565b6143026142fc6142f75f6117de565b610697565b91610697565b0361430957565b61432c6143155f6117de565b5f9182916339e3563760e11b8352600483016106b0565b0390fd5b61435361433c5f6117de565b5f918291633250574960e11b8352600483016106b0565b0390fd5b61435f611608565b506143725f61436c613a0a565b01612cf8565b90565b919061437f611608565b508061439b6143956143905f6117de565b610697565b91610697565b141592836143aa575b50505090565b80919293506143c16143bb84610697565b91610697565b14908115614403575b509182156143dd575b50505f80806143a4565b6143fb9192506143ef6143f5916136c5565b92610697565b91610697565b145f806143d3565b61440f9150829061352c565b5f6143ca56fea26469706673582212204962aee233490e37f9c921f2d0fb5fa1024a7724a8873c8ebe4569d8b0176b4564736f6c634300081e0033","linkReferences":{}},"methodIdentifiers":{"approve(address,uint256)":"095ea7b3","balanceOf(address)":"70a08231","calculateRefundAmount(uint256)":"9d696d25","checkIn(uint256)":"e95a644f","eventDate()":"4bfbe5df","eventId()":"089cdd0c","getApproved(uint256)":"081812fc","getTier(uint256)":"4f062c5a","initialize(string,string,uint256,uint256,address,address,address,(string,uint256,uint256,uint256,string)[])":"ca13396a","isApprovedForAll(address,address)":"e985e9c5","isCheckedIn(uint256)":"abdd9744","marketplace()":"abc8c7af","mint(uint256,string)":"77097fc8","name()":"06fdde03","owner()":"8da5cb5b","ownerOf(uint256)":"6352211e","refundTicket(uint256)":"75774100","renounceOwnership()":"715018a6","safeTransferFrom(address,address,uint256)":"42842e0e","safeTransferFrom(address,address,uint256,bytes)":"b88d4fde","seatNumbers(uint256)":"f9896ce2","setApprovalForAll(address,bool)":"a22cb465","setUser(uint256,address,uint64)":"e030565e","supportsInterface(bytes4)":"01ffc9a7","symbol()":"95d89b41","tierCount()":"96b55f7d","tiers(uint256)":"039af9eb","tokenTier(uint256)":"649e705f","tokenURI(uint256)":"c87b56dd","totalSupply()":"18160ddd","transferFrom(address,address,uint256)":"23b872dd","transferOwnership(address)":"f2fde38b","userExpires(uint256)":"8fc88c48","userOf(uint256)":"c2f1f14a","userVerification()":"0b125c11"},"id":60}