{"abi":[{"type":"constructor","inputs":[{"name":"_implementation","type":"address","internalType":"address"},{"name":"_userVerification","type":"address","internalType":"address"},{"name":"_marketplace","type":"address","internalType":"address"}],"stateMutability":"nonpayable"},{"type":"function","name":"IMPLEMENTATION","inputs":[],"outputs":[{"name":"","type":"address","internalType":"address"}],"stateMutability":"view"},{"type":"function","name":"MARKETPLACE","inputs":[],"outputs":[{"name":"","type":"address","internalType":"address"}],"stateMutability":"view"},{"type":"function","name":"USER_VERIFICATION","inputs":[],"outputs":[{"name":"","type":"address","internalType":"address"}],"stateMutability":"view"},{"type":"function","name":"creationFee","inputs":[],"outputs":[{"name":"","type":"uint256","internalType":"uint256"}],"stateMutability":"view"},{"type":"function","name":"deployEvent","inputs":[{"name":"name","type":"string","internalType":"string"},{"name":"symbol","type":"string","internalType":"string"},{"name":"eventId","type":"uint256","internalType":"uint256"},{"name":"eventDate","type":"uint256","internalType":"uint256"},{"name":"tiers","type":"tuple[]","internalType":"struct IEventTicket.TicketTier[]","components":[{"name":"name","type":"string","internalType":"string"},{"name":"price","type":"uint256","internalType":"uint256"},{"name":"supply","type":"uint256","internalType":"uint256"},{"name":"minted","type":"uint256","internalType":"uint256"},{"name":"metadataUri","type":"string","internalType":"string"}]}],"outputs":[{"name":"","type":"address","internalType":"address"}],"stateMutability":"payable"},{"type":"function","name":"owner","inputs":[],"outputs":[{"name":"","type":"address","internalType":"address"}],"stateMutability":"view"},{"type":"function","name":"renounceOwnership","inputs":[],"outputs":[],"stateMutability":"nonpayable"},{"type":"function","name":"setCreationFee","inputs":[{"name":"_fee","type":"uint256","internalType":"uint256"}],"outputs":[],"stateMutability":"nonpayable"},{"type":"function","name":"setOrganizerStatus","inputs":[{"name":"organizer","type":"address","internalType":"address"},{"name":"status","type":"bool","internalType":"bool"}],"outputs":[],"stateMutability":"nonpayable"},{"type":"function","name":"transferOwnership","inputs":[{"name":"newOwner","type":"address","internalType":"address"}],"outputs":[],"stateMutability":"nonpayable"},{"type":"function","name":"whitelistedOrganizers","inputs":[{"name":"","type":"address","internalType":"address"}],"outputs":[{"name":"","type":"bool","internalType":"bool"}],"stateMutability":"view"},{"type":"function","name":"withdrawFees","inputs":[],"outputs":[],"stateMutability":"nonpayable"},{"type":"event","name":"CreationFeeUpdated","inputs":[{"name":"newFee","type":"uint256","indexed":false,"internalType":"uint256"}],"anonymous":false},{"type":"event","name":"EventDeployed","inputs":[{"name":"eventContract","type":"address","indexed":true,"internalType":"address"},{"name":"eventId","type":"uint256","indexed":false,"internalType":"uint256"},{"name":"organizer","type":"address","indexed":false,"internalType":"address"}],"anonymous":false},{"type":"event","name":"FeesWithdrawn","inputs":[{"name":"recipient","type":"address","indexed":true,"internalType":"address"},{"name":"amount","type":"uint256","indexed":false,"internalType":"uint256"}],"anonymous":false},{"type":"event","name":"OrganizerWhitelisted","inputs":[{"name":"organizer","type":"address","indexed":true,"internalType":"address"},{"name":"status","type":"bool","indexed":false,"internalType":"bool"}],"anonymous":false},{"type":"event","name":"OwnershipTransferred","inputs":[{"name":"previousOwner","type":"address","indexed":true,"internalType":"address"},{"name":"newOwner","type":"address","indexed":true,"internalType":"address"}],"anonymous":false},{"type":"error","name":"FailedDeployment","inputs":[]},{"type":"error","name":"InsufficientBalance","inputs":[{"name":"balance","type":"uint256","internalType":"uint256"},{"name":"needed","type":"uint256","internalType":"uint256"}]},{"type":"error","name":"OwnableInvalidOwner","inputs":[{"name":"owner","type":"address","internalType":"address"}]},{"type":"error","name":"OwnableUnauthorizedAccount","inputs":[{"name":"account","type":"address","internalType":"address"}]}],"bytecode":{"object":"0x60e0604052346100605761001a610014610141565b916101c7565b610022610065565b61159661039482396080518181816101010152610fd5015260a051818181610193015261101b015260c05181818161089a015261103d015261159690f35b61006b565b60405190565b5f80fd5b601f801991011690565b634e487b7160e01b5f52604160045260245ffd5b906100979061006f565b810190811060018060401b038211176100af57604052565b610079565b906100c76100c0610065565b928361008d565b565b5f80fd5b60018060a01b031690565b6100e1906100cd565b90565b6100ed816100d8565b036100f457565b5f80fd5b90505190610105826100e4565b565b909160608284031261013c57610139610122845f85016100f8565b9361013081602086016100f8565b936040016100f8565b90565b6100c9565b61015f61192a80380380610154816100b4565b928339810190610107565b909192565b5f1b90565b906101755f1991610164565b9181191691161790565b90565b90565b90565b61019c6101976101a19261017f565b610185565b610182565b90565b90565b906101bc6101b76101c392610188565b6101a4565b8254610169565b9055565b6101d03361023a565b6101e2662386f26fc1000060016101a7565b60805260a05260c052565b90565b6102046101ff610209926101ed565b610185565b6100cd565b90565b610215906101f0565b90565b610221906100d8565b9052565b9190610238905f60208501940190610218565b565b8061025561024f61024a5f61020c565b6100d8565b916100d8565b146102655761026390610334565b565b6102886102715f61020c565b5f918291631e4fbdf760e01b835260048301610225565b0390fd5b5f1c90565b60018060a01b031690565b6102a86102ad9161028c565b610291565b90565b6102ba905461029c565b90565b906102ce60018060a01b0391610164565b9181191691161790565b6102ec6102e76102f1926100cd565b610185565b6100cd565b90565b6102fd906102d8565b90565b610309906102f4565b90565b90565b9061032461031f61032b92610300565b61030c565b82546102bd565b9055565b5f0190565b61033d5f6102b0565b610347825f61030f565b9061037b6103757f8be0079c531659141344cd1fd0a4f28419497f9722a3daafe3b4186f6b6457e093610300565b91610300565b91610384610065565b8061038e8161032f565b0390a356fe60806040526004361015610013575b6108f1565b61001d5f356100dc565b80633a4741bd146100d7578063407049a0146100d2578063476343ee146100cd578063715018a6146100c857806371d534c6146100c35780638da5cb5b146100be578063b7d86225146100b9578063be832879146100b4578063c6aaabf6146100af578063dce0b4e4146100aa578063f2fde38b146100a55763ffef3cf00361000e576108bc565b610865565b610830565b6107a1565b610697565b6105ec565b610599565b61056a565b610222565b6101ef565b6101b5565b61015c565b60e01c90565b60405190565b5f80fd5b5f80fd5b5f9103126100fa57565b6100ec565b7f000000000000000000000000000000000000000000000000000000000000000090565b60018060a01b031690565b61013790610123565b90565b6101439061012e565b9052565b919061015a905f6020850194019061013a565b565b3461018c5761016c3660046100f0565b6101886101776100ff565b61017f6100e2565b91829182610147565b0390f35b6100e8565b7f000000000000000000000000000000000000000000000000000000000000000090565b346101e5576101c53660046100f0565b6101e16101d0610191565b6101d86100e2565b91829182610147565b0390f35b6100e8565b5f0190565b3461021d576101ff3660046100f0565b610207610b5e565b61020f6100e2565b80610219816101ea565b0390f35b6100e8565b34610250576102323660046100f0565b61023a610bb5565b6102426100e2565b8061024c816101ea565b0390f35b6100e8565b5f80fd5b5f80fd5b5f80fd5b601f801991011690565b634e487b7160e01b5f52604160045260245ffd5b9061028990610261565b810190811067ffffffffffffffff8211176102a357604052565b61026b565b906102bb6102b46100e2565b928361027f565b565b67ffffffffffffffff81116102db576102d7602091610261565b0190565b61026b565b90825f939282370152565b909291926103006102fb826102bd565b6102a8565b9381855260208501908284011161031c5761031a926102e0565b565b61025d565b9080601f8301121561033f5781602061033c933591016102eb565b90565b610259565b90565b61035081610344565b0361035757565b5f80fd5b9050359061036882610347565b565b67ffffffffffffffff81116103825760208091020190565b61026b565b5f80fd5b5f80fd5b5f80fd5b91909160a081840312610433576103aa60a06102a8565b925f82013567ffffffffffffffff811161042e57816103ca918401610321565b5f8501526103db816020840161035b565b60208501526103ed816040840161035b565b60408501526103ff816060840161035b565b6060850152608082013567ffffffffffffffff8111610429576104229201610321565b6080830152565b61038f565b61038f565b61038b565b92919061044c6104478261036a565b6102a8565b93818552602080860192028101918383116104a35781905b838210610472575050505050565b813567ffffffffffffffff811161049e576020916104938784938701610393565b815201910190610464565b610259565b610387565b9080601f830112156104c6578160206104c393359101610438565b90565b610259565b91909160a081840312610565575f81013567ffffffffffffffff811161056057836104f7918301610321565b92602082013567ffffffffffffffff811161055b5781610518918401610321565b92610526826040850161035b565b92610534836060830161035b565b92608082013567ffffffffffffffff81116105565761055392016104a8565b90565b610255565b610255565b610255565b6100ec565b61059561058461057b3660046104cb565b93929092610f81565b61058c6100e2565b91829182610147565b0390f35b346105c9576105a93660046100f0565b6105c56105b4611147565b6105bc6100e2565b91829182610147565b0390f35b6100e8565b906020828203126105e7576105e4915f0161035b565b90565b6100ec565b3461061a576106046105ff3660046105ce565b61120f565b61060c6100e2565b80610616816101ea565b0390f35b6100e8565b6106288161012e565b0361062f57565b5f80fd5b905035906106408261061f565b565b151590565b61065081610642565b0361065757565b5f80fd5b9050359061066882610647565b565b9190604083820312610692578061068661068f925f8601610633565b9360200161065b565b90565b6100ec565b346106c6576106b06106aa36600461066a565b906112cc565b6106b86100e2565b806106c2816101ea565b0390f35b6100e8565b906020828203126106e4576106e1915f01610633565b90565b6100ec565b90565b6107006106fb61070592610123565b6106e9565b610123565b90565b610711906106ec565b90565b61071d90610708565b90565b9061072a90610714565b5f5260205260405f2090565b1c90565b60ff1690565b6107509060086107559302610736565b61073a565b90565b906107639154610740565b90565b61077c906107776002915f92610720565b610758565b90565b61078890610642565b9052565b919061079f905f6020850194019061077f565b565b346107d1576107cd6107bc6107b73660046106cb565b610766565b6107c46100e2565b9182918261078c565b0390f35b6100e8565b90565b6107e99060086107ee9302610736565b6107d6565b90565b906107fc91546107d9565b90565b61080b60015f906107f1565b90565b61081790610344565b9052565b919061082e905f6020850194019061080e565b565b34610860576108403660046100f0565b61085c61084b6107ff565b6108536100e2565b9182918261081b565b0390f35b6100e8565b346108935761087d6108783660046106cb565b61133d565b6108856100e2565b8061088f816101ea565b0390f35b6100e8565b7f000000000000000000000000000000000000000000000000000000000000000090565b346108ec576108cc3660046100f0565b6108e86108d7610898565b6108df6100e2565b91829182610147565b0390f35b6100e8565b5f80fd5b6108fd611348565b610905610ac7565b565b61091090610708565b90565b90565b61092a61092561092f92610913565b6106e9565b610344565b90565b60209181520190565b5f7f4e6f206665657320746f20776974686472617700000000000000000000000000910152565b61096f6013602092610932565b6109788161093b565b0190565b6109919060208101905f818303910152610962565b90565b1561099b57565b6109a36100e2565b62461bcd60e51b8152806109b96004820161097c565b0390fd5b905090565b6109cd5f80926109bd565b0190565b6109da906109c2565b90565b67ffffffffffffffff81116109fb576109f7602091610261565b0190565b61026b565b90610a12610a0d836109dd565b6102a8565b918252565b606090565b3d5f14610a3757610a2c3d610a00565b903d5f602084013e5b565b610a3f610a17565b90610a35565b5f7f5472616e73666572206661696c65640000000000000000000000000000000000910152565b610a79600f602092610932565b610a8281610a45565b0190565b610a9b9060208101905f818303910152610a6c565b90565b15610aa557565b610aad6100e2565b62461bcd60e51b815280610ac360048201610a86565b0390fd5b610ad030610907565b31610aed81610ae7610ae15f610916565b91610344565b11610994565b610b195f803384610afc6100e2565b9081610b07816109d1565b03925af1610b13610a1c565b50610a9e565b33610b59610b477fc0819c13be868895eb93e40eaceb96de976442fa1d404e5c55f14bb65a8c489a92610714565b92610b506100e2565b9182918261081b565b0390a2565b610b666108f5565b565b610b70611348565b610b78610ba2565b565b610b8e610b89610b9392610913565b6106e9565b610123565b90565b610b9f90610b7a565b90565b610bb3610bae5f610b96565b6113d4565b565b610bbd610b68565b565b5f90565b5f1c90565b610bd4610bd991610bc3565b61073a565b90565b610be69054610bc8565b90565b5f7f4e6f7420617574686f72697a6564206f7267616e697a65720000000000000000910152565b610c1d6018602092610932565b610c2681610be9565b0190565b610c3f9060208101905f818303910152610c10565b90565b15610c4957565b610c516100e2565b62461bcd60e51b815280610c6760048201610c2a565b0390fd5b610c77610c7c91610bc3565b6107d6565b90565b610c899054610c6b565b90565b5f7f496e73756666696369656e74206372656174696f6e2066656500000000000000910152565b610cc06019602092610932565b610cc981610c8c565b0190565b610ce29060208101905f818303910152610cb3565b90565b15610cec57565b610cf46100e2565b62461bcd60e51b815280610d0a60048201610ccd565b0390fd5b610d17906106ec565b90565b610d2390610d0e565b90565b610d2f90610708565b90565b5f80fd5b60e01b90565b5f910312610d4657565b6100ec565b5190565b90825f9392825e0152565b610d79610d82602093610d8793610d7081610d4b565b93848093610932565b95869101610d4f565b610261565b0190565b5190565b60209181520190565b60200190565b60209181520190565b610dc6610dcf602093610dd493610dbd81610d4b565b93848093610d9e565b95869101610d4f565b610261565b0190565b610de190610344565b9052565b610e49916080610e0260a083015f8501518482035f860152610da7565b92610e1560208201516020850190610dd8565b610e2760408201516040850190610dd8565b610e3960608201516060850190610dd8565b0151906080818403910152610da7565b90565b90610e5691610de5565b90565b60200190565b90610e73610e6c83610d8b565b8092610d8f565b9081610e8460208302840194610d98565b925f915b838310610e9757505050505090565b90919293946020610eb9610eb383856001950387528951610e4c565b97610e59565b9301930191939290610e88565b94610f2a90610f20610f3e96610f16610f0b610f3497610efc610f4b9f9d989a9e9a8d906101008201915f818403910152610d5a565b908c6020818403910152610d5a565b9b60408b019061080e565b606089019061080e565b608087019061013a565b60a085019061013a565b60c083019061013a565b60e0818403910152610e5f565b90565b610f566100e2565b3d5f823e3d90fd5b916020610f7f929493610f7860408201965f83019061080e565b019061013a565b565b91929390610f8d610bbf565b50610faa610fa5610fa060023390610720565b610bdc565b610c42565b610fd034610fc9610fc3610fbe6001610c7f565b610344565b91610344565b1015610ce5565b610ff97f0000000000000000000000000000000000000000000000000000000000000000611433565b9461100b61100687610d1a565b610d26565b9063ca13396a94929486919033927f0000000000000000000000000000000000000000000000000000000000000000967f0000000000000000000000000000000000000000000000000000000000000000863b15611116575f98611083968a9661108e956110776100e2565b9d8e9c8d9b8c9a610d36565b8a5260048a01610ec6565b03925af18015611111576110e5575b5081336110ca7f4ec24befa14fd04d82b13a102bea5732a1a7372b863a8f679aef43a43241638192610714565b926110df6110d66100e2565b92839283610f5e565b0390a290565b611104905f3d811161110a575b6110fc818361027f565b810190610d3c565b5f61109d565b503d6110f2565b610f4e565b610d32565b60018060a01b031690565b61113261113791610bc3565b61111b565b90565b6111449054611126565b90565b61114f610bbf565b506111595f61113a565b90565b61116d90611168611348565b6111c9565b565b5f1b90565b906111805f199161116f565b9181191691161790565b61119e6111996111a392610344565b6106e9565b610344565b90565b90565b906111be6111b96111c59261118a565b6111a6565b8254611174565b9055565b6111d48160016111a9565b61120a7f88a973fd5506071e0cf878b30898776c47d5250a7ee1e6ee0b36df3b03c7c16a916112016100e2565b9182918261081b565b0390a1565b6112189061115c565b565b9061122c91611227611348565b611273565b565b9061123a60ff9161116f565b9181191691161790565b61124d90610642565b90565b90565b9061126861126361126f92611244565b611250565b825461122e565b9055565b6112888261128360028490610720565b611253565b6112c76112b57ff25fda1a2e111038e7c9f4a6c8df16b067b1f6678e4e487ae4e40b2debe7be9a92610714565b926112be6100e2565b9182918261078c565b0390a2565b906112d69161121a565b565b6112e9906112e4611348565b6112eb565b565b806113066113006112fb5f610b96565b61012e565b9161012e565b1461131657611314906113d4565b565b6113396113225f610b96565b5f918291631e4fbdf760e01b835260048301610147565b0390fd5b611346906112d8565b565b611350611147565b61136961136361135e611452565b61012e565b9161012e565b0361137057565b61139261137b611452565b5f91829163118cdaa760e01b835260048301610147565b0390fd5b906113a760018060a01b039161116f565b9181191691161790565b90565b906113c96113c46113d092610714565b6113b1565b8254611396565b9055565b6113dd5f61113a565b6113e7825f6113b4565b9061141b6114157f8be0079c531659141344cd1fd0a4f28419497f9722a3daafe3b4186f6b6457e093610714565b91610714565b916114246100e2565b8061142e816101ea565b0390a3565b61144f9061143f610bbf565b506114495f610916565b9061148e565b90565b61145a610bbf565b503390565b61146890610708565b90565b91602061148c92949361148560408201965f83019061080e565b019061080e565b565b611496610bbf565b506114a03061145f565b316114b36114ad84610344565b91610344565b10611537576037916e5af43d82803e903d91602b57fd5bf382763d602d80600a3d3981f3363d3d373d3d3d363d7300000060099460601b60e81c175f5260781b17602052f0908161151461150e6115095f610b96565b61012e565b9161012e565b1461151b57565b5f63b06ebf3d60e01b815280611533600482016101ea565b0390fd5b506115413061145f565b3161155c5f92839263cf47918160e01b84526004840161146b565b0390fdfea2646970667358221220d0714599f4a70ad5054fde28355b1fc11c659109c6d835185258bc034b94934964736f6c634300081e0033","linkReferences":{}},"methodIdentifiers":{"IMPLEMENTATION()":"3a4741bd","MARKETPLACE()":"ffef3cf0","USER_VERIFICATION()":"407049a0","creationFee()":"dce0b4e4","deployEvent(string,string,uint256,uint256,(string,uint256,uint256,uint256,string)[])":"71d534c6","owner()":"8da5cb5b","renounceOwnership()":"715018a6","setCreationFee(uint256)":"b7d86225","setOrganizerStatus(address,bool)":"be832879","transferOwnership(address)":"f2fde38b","whitelistedOrganizers(address)":"c6aaabf6","withdrawFees()":"476343ee"},"id":59}