{"abi":[{"type":"constructor","inputs":[{"name":"_usdcToken","type":"address","internalType":"address"},{"name":"_treasury","type":"address","internalType":"address"}],"stateMutability":"nonpayable"},{"type":"function","name":"MAX_BPS","inputs":[],"outputs":[{"name":"","type":"uint256","internalType":"uint256"}],"stateMutability":"view"},{"type":"function","name":"PLATFORM_FEE_BPS","inputs":[],"outputs":[{"name":"","type":"uint256","internalType":"uint256"}],"stateMutability":"view"},{"type":"function","name":"TREASURY","inputs":[],"outputs":[{"name":"","type":"address","internalType":"address"}],"stateMutability":"view"},{"type":"function","name":"USDC_TOKEN","inputs":[],"outputs":[{"name":"","type":"address","internalType":"contract IERC20"}],"stateMutability":"view"},{"type":"function","name":"balances","inputs":[{"name":"","type":"address","internalType":"address"}],"outputs":[{"name":"","type":"uint256","internalType":"uint256"}],"stateMutability":"view"},{"type":"function","name":"buyTicket","inputs":[{"name":"nftContract","type":"address","internalType":"address"},{"name":"tokenId","type":"uint256","internalType":"uint256"},{"name":"price","type":"uint256","internalType":"uint256"},{"name":"deadline","type":"uint256","internalType":"uint256"},{"name":"seller","type":"address","internalType":"address"},{"name":"v","type":"uint8","internalType":"uint8"},{"name":"r","type":"bytes32","internalType":"bytes32"},{"name":"s","type":"bytes32","internalType":"bytes32"}],"outputs":[],"stateMutability":"nonpayable"},{"type":"function","name":"cancelListing","inputs":[{"name":"nftContract","type":"address","internalType":"address"},{"name":"tokenId","type":"uint256","internalType":"uint256"},{"name":"price","type":"uint256","internalType":"uint256"},{"name":"deadline","type":"uint256","internalType":"uint256"}],"outputs":[],"stateMutability":"nonpayable"},{"type":"function","name":"cancelledOrExecuted","inputs":[{"name":"","type":"bytes32","internalType":"bytes32"}],"outputs":[{"name":"","type":"bool","internalType":"bool"}],"stateMutability":"view"},{"type":"function","name":"deposit","inputs":[{"name":"amount","type":"uint256","internalType":"uint256"}],"outputs":[],"stateMutability":"nonpayable"},{"type":"function","name":"eip712Domain","inputs":[],"outputs":[{"name":"fields","type":"bytes1","internalType":"bytes1"},{"name":"name","type":"string","internalType":"string"},{"name":"version","type":"string","internalType":"string"},{"name":"chainId","type":"uint256","internalType":"uint256"},{"name":"verifyingContract","type":"address","internalType":"address"},{"name":"salt","type":"bytes32","internalType":"bytes32"},{"name":"extensions","type":"uint256[]","internalType":"uint256[]"}],"stateMutability":"view"},{"type":"function","name":"owner","inputs":[],"outputs":[{"name":"","type":"address","internalType":"address"}],"stateMutability":"view"},{"type":"function","name":"processPrimarySale","inputs":[{"name":"buyer","type":"address","internalType":"address"},{"name":"organizer","type":"address","internalType":"address"},{"name":"amount","type":"uint256","internalType":"uint256"}],"outputs":[],"stateMutability":"nonpayable"},{"type":"function","name":"processRefund","inputs":[{"name":"buyer","type":"address","internalType":"address"},{"name":"organizer","type":"address","internalType":"address"},{"name":"amount","type":"uint256","internalType":"uint256"}],"outputs":[],"stateMutability":"nonpayable"},{"type":"function","name":"renounceOwnership","inputs":[],"outputs":[],"stateMutability":"nonpayable"},{"type":"function","name":"transferOwnership","inputs":[{"name":"newOwner","type":"address","internalType":"address"}],"outputs":[],"stateMutability":"nonpayable"},{"type":"function","name":"withdraw","inputs":[],"outputs":[],"stateMutability":"nonpayable"},{"type":"event","name":"EIP712DomainChanged","inputs":[],"anonymous":false},{"type":"event","name":"FundsDeposited","inputs":[{"name":"user","type":"address","indexed":true,"internalType":"address"},{"name":"amount","type":"uint256","indexed":false,"internalType":"uint256"}],"anonymous":false},{"type":"event","name":"FundsWithdrawn","inputs":[{"name":"user","type":"address","indexed":true,"internalType":"address"},{"name":"amount","type":"uint256","indexed":false,"internalType":"uint256"}],"anonymous":false},{"type":"event","name":"OwnershipTransferred","inputs":[{"name":"previousOwner","type":"address","indexed":true,"internalType":"address"},{"name":"newOwner","type":"address","indexed":true,"internalType":"address"}],"anonymous":false},{"type":"event","name":"RefundProcessed","inputs":[{"name":"buyer","type":"address","indexed":true,"internalType":"address"},{"name":"organizer","type":"address","indexed":true,"internalType":"address"},{"name":"amount","type":"uint256","indexed":false,"internalType":"uint256"}],"anonymous":false},{"type":"event","name":"SaleExecuted","inputs":[{"name":"nftContract","type":"address","indexed":true,"internalType":"address"},{"name":"tokenId","type":"uint256","indexed":true,"internalType":"uint256"},{"name":"seller","type":"address","indexed":false,"internalType":"address"},{"name":"buyer","type":"address","indexed":false,"internalType":"address"},{"name":"price","type":"uint256","indexed":false,"internalType":"uint256"},{"name":"platformFee","type":"uint256","indexed":false,"internalType":"uint256"},{"name":"royalty","type":"uint256","indexed":false,"internalType":"uint256"}],"anonymous":false},{"type":"error","name":"ECDSAInvalidSignature","inputs":[]},{"type":"error","name":"ECDSAInvalidSignatureLength","inputs":[{"name":"length","type":"uint256","internalType":"uint256"}]},{"type":"error","name":"ECDSAInvalidSignatureS","inputs":[{"name":"s","type":"bytes32","internalType":"bytes32"}]},{"type":"error","name":"InvalidShortString","inputs":[]},{"type":"error","name":"OwnableInvalidOwner","inputs":[{"name":"owner","type":"address","internalType":"address"}]},{"type":"error","name":"OwnableUnauthorizedAccount","inputs":[{"name":"account","type":"address","internalType":"address"}]},{"type":"error","name":"ReentrancyGuardReentrantCall","inputs":[]},{"type":"error","name":"SafeERC20FailedOperation","inputs":[{"name":"token","type":"address","internalType":"address"}]},{"type":"error","name":"StringTooLong","inputs":[{"name":"str","type":"string","internalType":"string"}]}],"bytecode":{"object":"0x6101a0604052346100b85761001b61001561018c565b906102b3565b6100236100bd565b612797610bc782396080518161217a015260a051816121b1015260c05181612141015260e051816126410152610100518161266601526101205181611d1501526101405181611d5501526101605181818161096f01528181610bf201528181610f7e0152818161162a015261180701526101805181818161028601528181610fec0152818161109201526116cf015261279790f35b6100c3565b60405190565b5f80fd5b601f801991011690565b634e487b7160e01b5f52604160045260245ffd5b906100ef906100c7565b810190811060018060401b0382111761010757604052565b6100d1565b9061011f6101186100bd565b92836100e5565b565b5f80fd5b60018060a01b031690565b61013990610125565b90565b61014581610130565b0361014c57565b5f80fd5b9050519061015d8261013c565b565b9190604083820312610187578061017b610184925f8601610150565b93602001610150565b90565b610121565b6101aa61335e8038038061019f8161010c565b92833981019061015f565b9091565b60018060401b0381116101ca576101c66020916100c7565b0190565b6100d1565b906101e16101dc836101ae565b61010c565b918252565b5f7f5469636b65744d61726b6574706c616365000000000000000000000000000000910152565b61021760116101cf565b90610224602083016101e6565b565b61022e61020d565b90565b5f7f3100000000000000000000000000000000000000000000000000000000000000910152565b61026260016101cf565b9061026f60208301610231565b565b610279610258565b90565b90565b61029361028e61029892610125565b61027c565b610125565b90565b6102a49061027f565b90565b6102b09061029b565b90565b6102d6906102d16102c2610226565b6102ca610271565b3391610308565b6102a7565b6101605261018052565b90565b90565b60200190565b5190565b6102f99061027f565b90565b610305906102f0565b90565b61034d906103186103689461039c565b61032c8161032660016102e0565b90610795565b610120526103448361033e60026102e0565b90610795565b610140526102e3565b61035f610359826102ec565b916102e6565b2060e0526102e3565b61037a610374826102ec565b916102e6565b20610100524660a05261038b61089a565b608052610397306102fc565b60c052565b6103a5906103f4565b565b90565b6103be6103b96103c3926103a7565b61027c565b610125565b90565b6103cf906103aa565b90565b6103db90610130565b9052565b91906103f2905f602085019401906103d2565b565b6103fc61044e565b8061041761041161040c5f6103c6565b610130565b91610130565b14610427576104259061098b565b565b61044a6104335f6103c6565b5f918291631e4fbdf760e01b8352600483016103df565b0390fd5b6104566104e1565b565b90565b90565b61047261046d61047792610458565b61027c565b61045b565b90565b610484600161045e565b90565b5f1b90565b906104985f1991610487565b9181191691161790565b6104b66104b16104bb9261045b565b61027c565b61045b565b90565b90565b906104d66104d16104dd926104a2565b6104be565b825461048c565b9055565b6105036104ec61047a565b5f6104fd6104f8610a35565b610a49565b016104c1565b565b5f90565b90565b61052061051b61052592610509565b61027c565b61045b565b90565b5190565b634e487b7160e01b5f52602260045260245ffd5b9060016002830492168015610560575b602083101461055b57565b61052c565b91607f1691610550565b5f5260205f2090565b601f602091010490565b1b90565b9190600861059c9102916105965f198461057d565b9261057d565b9181191691161790565b91906105bc6105b76105c4936104a2565b6104be565b908354610581565b9055565b5f90565b6105de916105d86105c8565b916105a6565b565b5b8181106105ec575050565b806105f95f6001936105cc565b016105e1565b9190601f811161060f575b505050565b61061b6106409361056a565b90602061062784610573565b83019310610648575b61063990610573565b01906105e0565b5f808061060a565b915061063981929050610630565b1c90565b9061066a905f1990600802610656565b191690565b816106799161065a565b906002021790565b9061068b81610528565b9060018060401b038211610749576106ad826106a78554610540565b856105ff565b602090601f83116001146106e1579180916106d0935f926106d5575b505061066f565b90555b565b90915001515f806106c9565b601f198316916106f08561056a565b925f5b81811061073157509160029391856001969410610717575b505050020190556106d3565b610727910151601f84169061065a565b90555f808061070b565b919360206001819287870151815501950192016106f3565b6100d1565b9061075891610681565b565b90565b90565b61077461076f6107799261075a565b610487565b61075d565b90565b61078660ff610760565b90565b6107929061075d565b90565b9061079e610505565b506107b06107ab836102e3565b6102ec565b6107c36107bd602061050c565b9161045b565b105f146107d757506107d490610b3c565b90565b5f6107e56107eb9392610a4c565b0161074e565b6107fb6107f661077c565b610789565b90565b5f90565b7f8b73c3c69bb8fe3d512ecc4cf759cc79239f7b179b0ffacaa9a75d522b39400f90565b610830905161075d565b90565b61083c9061075d565b9052565b6108499061045b565b9052565b90959492610898946108876108919261087d60809661087360a088019c5f890190610833565b6020870190610833565b6040850190610833565b6060830190610840565b01906103d2565b565b6108a26107fe565b506108ab610802565b6108f56108b860e0610826565b916108e66108c7610100610826565b466108d1306102fc565b916108da6100bd565b9687956020870161084d565b602082018103825203826100e5565b610907610901826102ec565b916102e6565b2090565b5f1c90565b60018060a01b031690565b61092761092c9161090b565b610910565b90565b610939905461091b565b90565b9061094d60018060a01b0391610487565b9181191691161790565b610960906102f0565b90565b90565b9061097b61097661098292610957565b610963565b825461093c565b9055565b5f0190565b6109945f61092f565b61099e825f610966565b906109d26109cc7f8be0079c531659141344cd1fd0a4f28419497f9722a3daafe3b4186f6b6457e093610957565b91610957565b916109db6100bd565b806109e581610986565b0390a3565b90565b610a016109fc610a06926109ea565b610487565b61075d565b90565b610a327f9b779b17422d0df92223018b32b4d1fa46e071723d6817e2486d003becc55f006109ed565b90565b610a3d6107fe565b50610a46610a09565b90565b90565b90565b90565b610a66610a61610a6b92610a4f565b61027c565b61045b565b90565b60209181520190565b90825f9392825e0152565b610aa1610aaa602093610aaf93610a9881610528565b93848093610a6e565b95869101610a77565b6100c7565b0190565b610ac89160208201915f818403910152610a82565b90565b610ae5610ae0610ada836102ec565b926102e6565b610826565b9060208110610af3575b5090565b610b05905f199060200360080261057d565b165f610aef565b610b18610b1d9161090b565b6104a2565b90565b610b34610b2f610b399261045b565b610487565b61075d565b90565b610b44610505565b50610b4e816102e3565b90610b58826102ec565b610b6b610b65601f610a52565b9161045b565b11610ba05750610b9881610b92610b8c610b87610b9d95610acb565b610b0c565b916102ec565b17610b20565b610789565b90565b610bc290610bac6100bd565b91829163305a27a960e01b835260048301610ab3565b0390fdfe60806040526004361015610013575b610a61565b61001d5f3561011c565b806327e235e3146101175780632d2c5565146101125780633ccfd60b1461010d5780634e20398414610108578063539aa77f14610103578063715018a6146100fe57806384b0196e146100f95780638da5cb5b146100f4578063a62181a0146100ef578063b011b29a146100ea578063b6b55f25146100e5578063b7e6fbb0146100e0578063b9fc6046146100db578063f2fde38b146100d6578063fa569274146100d15763fd967f470361000e57610a2c565b6109bf565b61093a565b610906565b6108cf565b610856565b6107fb565b61071d565b61068b565b61064f565b6104aa565b610475565b610409565b610304565b6102ca565b610240565b60e01c90565b60405190565b5f80fd5b5f80fd5b60018060a01b031690565b61014490610130565b90565b6101508161013b565b0361015757565b5f80fd5b9050359061016882610147565b565b9060208282031261018357610180915f0161015b565b90565b61012c565b90565b61019f61019a6101a492610130565b610188565b610130565b90565b6101b09061018b565b90565b6101bc906101a7565b90565b906101c9906101b3565b5f5260205260405f2090565b1c90565b90565b6101ec9060086101f193026101d5565b6101d9565b90565b906101ff91546101dc565b90565b610218906102136003915f926101bf565b6101f4565b90565b90565b6102279061021b565b9052565b919061023e905f6020850194019061021e565b565b346102705761026c61025b61025636600461016a565b610202565b610263610122565b9182918261022b565b0390f35b610128565b5f91031261027f57565b61012c565b7f000000000000000000000000000000000000000000000000000000000000000090565b6102b19061013b565b9052565b91906102c8905f602085019401906102a8565b565b346102fa576102da366004610275565b6102f66102e5610284565b6102ed610122565b918291826102b5565b0390f35b610128565b5f0190565b3461033257610314366004610275565b61031c610c5e565b610324610122565b8061032e816102ff565b0390f35b610128565b90565b61034381610337565b0361034a57565b5f80fd5b9050359061035b8261033a565b565b9060208282031261037657610373915f0161034e565b90565b61012c565b61038490610337565b90565b906103919061037b565b5f5260205260405f2090565b60ff1690565b6103b39060086103b893026101d5565b61039d565b90565b906103c691546103a3565b90565b6103df906103da6004915f92610387565b6103bb565b90565b151590565b6103f0906103e2565b9052565b9190610407905f602085019401906103e7565b565b346104395761043561042461041f36600461035d565b6103c9565b61042c610122565b918291826103f4565b0390f35b610128565b90565b61045561045061045a9261043e565b610188565b61021b565b90565b61046760fa610441565b90565b61047261045d565b90565b346104a557610485366004610275565b6104a161049061046a565b610498610122565b9182918261022b565b0390f35b610128565b346104d8576104ba366004610275565b6104c2610cb5565b6104ca610122565b806104d4816102ff565b0390f35b610128565b60ff60f81b1690565b6104ef906104dd565b9052565b5190565b60209181520190565b90825f9392825e0152565b601f801991011690565b61053461053d6020936105429361052b816104f3565b938480936104f7565b95869101610500565b61050b565b0190565b61054f90610337565b9052565b5190565b60209181520190565b60200190565b61056f9061021b565b9052565b9061058081602093610566565b0190565b60200190565b906105a76105a161059a84610553565b8093610557565b92610560565b905f5b8181106105b75750505090565b9091926105d06105ca6001928651610573565b94610584565b91019190916105aa565b9395919461062b61062061063f956106126106359561064c9c9a61060560e08c01925f8d01906104e6565b8a820360208c0152610515565b9088820360408a0152610515565b97606087019061021e565b60808501906102a8565b60a0830190610546565b60c081840391015261058a565b90565b346106865761065f366004610275565b61068261066a610dbb565b93610679979597939193610122565b978897886105da565b0390f35b610128565b346106bb5761069b366004610275565b6106b76106a6610e71565b6106ae610122565b918291826102b5565b0390f35b610128565b6106c98161021b565b036106d057565b5f80fd5b905035906106e1826106c0565b565b9091606082840312610718576107156106fe845f850161015b565b9361070c816020860161015b565b936040016106d4565b90565b61012c565b3461074c576107366107303660046106e3565b916110f5565b61073e610122565b80610748816102ff565b0390f35b610128565b60ff1690565b61076081610751565b0361076757565b5f80fd5b9050359061077882610757565b565b9190610100838203126107f657610793815f850161015b565b926107a182602083016106d4565b926107af83604084016106d4565b926107bd81606085016106d4565b926107cb826080830161015b565b926107f36107dc8460a0850161076b565b936107ea8160c0860161034e565b9360e00161034e565b90565b61012c565b346108335761081d61080e36600461077a565b969590959491949392936117d5565b610825610122565b8061082f816102ff565b0390f35b610128565b906020828203126108515761084e915f016106d4565b90565b61012c565b346108845761086e610869366004610838565b6118a5565b610876610122565b80610880816102ff565b0390f35b610128565b6080818303126108ca5761089f825f830161015b565b926108c76108b084602085016106d4565b936108be81604086016106d4565b936060016106d4565b90565b61012c565b34610901576108eb6108e2366004610889565b929190916118b0565b6108f3610122565b806108fd816102ff565b0390f35b610128565b346109355761091f6109193660046106e3565b91611aad565b610927610122565b80610931816102ff565b0390f35b610128565b346109685761095261094d36600461016a565b611b1f565b61095a610122565b80610964816102ff565b0390f35b610128565b7f000000000000000000000000000000000000000000000000000000000000000090565b61099a906101a7565b90565b6109a690610991565b9052565b91906109bd905f6020850194019061099d565b565b346109ef576109cf366004610275565b6109eb6109da61096d565b6109e2610122565b918291826109aa565b0390f35b610128565b90565b610a0b610a06610a10926109f4565b610188565b61021b565b90565b610a1e6127106109f7565b90565b610a29610a13565b90565b34610a5c57610a3c366004610275565b610a58610a47610a21565b610a4f610122565b9182918261022b565b0390f35b610128565b5f80fd5b610a6d611b56565b610a75610ba0565b610a7d611bae565b565b5f1c90565b610a90610a9591610a7f565b6101d9565b90565b610aa29054610a84565b90565b90565b610abc610ab7610ac192610aa5565b610188565b61021b565b90565b5f7f4e6f2066756e647320746f207769746864726177000000000000000000000000910152565b610af860146020926104f7565b610b0181610ac4565b0190565b610b1a9060208101905f818303910152610aeb565b90565b15610b2457565b610b2c610122565b62461bcd60e51b815280610b4260048201610b05565b0390fd5b5f1b90565b90610b575f1991610b46565b9181191691161790565b610b75610b70610b7a9261021b565b610188565b61021b565b90565b90565b90610b95610b90610b9c92610b61565b610b7d565b8254610b4b565b9055565b610bb4610baf600333906101bf565b610a98565b610bd081610bca610bc45f610aa8565b9161021b565b11610b1d565b610bed610bdc5f610aa8565b610be8600333906101bf565b610b80565b610c197f0000000000000000000000000000000000000000000000000000000000000000338391611bd2565b33610c59610c477feaff4b37086828766ad3268786972c0cd24259d4c87a80f9d3963a3c3d999b0d926101b3565b92610c50610122565b9182918261022b565b0390a2565b610c66610a65565b565b610c70611c19565b610c78610ca2565b565b610c8e610c89610c9392610aa5565b610188565b610130565b90565b610c9f90610c7a565b90565b610cb3610cae5f610c96565b611ca5565b565b610cbd610c68565b565b5f90565b606090565b5f90565b5f90565b5f90565b606090565b610ce2906101a7565b90565b610cf9610cf4610cfe92610aa5565b610b46565b610337565b90565b634e487b7160e01b5f52604160045260245ffd5b90610d1f9061050b565b810190811067ffffffffffffffff821117610d3957604052565b610d01565b90610d51610d4a610122565b9283610d15565b565b67ffffffffffffffff8111610d6b5760208091020190565b610d01565b90610d82610d7d83610d53565b610d3e565b918252565b369037565b90610db1610d9983610d70565b92602080610da78693610d53565b9201910390610d87565b565b600f60f81b90565b610dc3610cbf565b50610dcc610cc3565b50610dd5610cc3565b50610dde610cc8565b50610de7610ccc565b50610df0610cd0565b50610df9610cd4565b50610e02611d07565b90610e0b611d47565b904690610e1730610cd9565b90610e215f610ce5565b90610e33610e2e5f610aa8565b610d8c565b90610e3c610db3565b96959493929190565b60018060a01b031690565b610e5c610e6191610a7f565b610e45565b90565b610e6e9054610e50565b90565b610e79610ccc565b50610e835f610e64565b90565b90610e999291610e94611b56565b610f78565b610ea1611bae565b565b610eac906101a7565b90565b634e487b7160e01b5f52601160045260245ffd5b610ed2610ed89193929361021b565b9261021b565b91610ee483820261021b565b928184041490151715610ef357565b610eaf565b634e487b7160e01b5f52601260045260245ffd5b610f18610f1e9161021b565b9161021b565b908115610f29570490565b610ef8565b610f3d610f439193929361021b565b9261021b565b8203918211610f4e57565b610eaf565b610f62610f689193929361021b565b9261021b565b8201809211610f7357565b610eaf565b610faf907f000000000000000000000000000000000000000000000000000000000000000090610fa730610ea3565b908592611d87565b610fdd610fd5610fc784610fc161045d565b90610ec3565b610fcf610a13565b90610f0c565b928390610f2e565b906110268361102061101160037f0000000000000000000000000000000000000000000000000000000000000000906101bf565b9161101b83610a98565b610f53565b90610b80565b61104e82611048611039600385906101bf565b9161104383610a98565b610f53565b90610b80565b61108d61107b7f543ba50a5eec5e6178218e364b1d0f396157b3c8fa278522c2cb7fd99407d474926101b3565b92611084610122565b9182918261022b565b0390a27f00000000000000000000000000000000000000000000000000000000000000006110f06110de7f543ba50a5eec5e6178218e364b1d0f396157b3c8fa278522c2cb7fd99407d474926101b3565b926110e7610122565b9182918261022b565b0390a2565b906111009291610e86565b565b9061111a97969594939291611115611b56565b611547565b611122611bae565b565b5f7f4c697374696e6720657870697265640000000000000000000000000000000000910152565b611158600f6020926104f7565b61116181611124565b0190565b61117a9060208101905f81830391015261114b565b90565b1561118457565b61118c610122565b62461bcd60e51b8152806111a260048201611165565b0390fd5b7f3e7ea13bf55fc00182609b85c2a61fc30ef068f41bbf36df862eeff3a290e2d890565b919461121261121c9298979561120860a0966111fe6112239a6111f460c08a019e5f8b0190610546565b60208901906102a8565b60408701906102a8565b606085019061021e565b608083019061021e565b019061021e565b565b60200190565b5190565b5f7f496e76616c6964207369676e6174757265000000000000000000000000000000910152565b61126360116020926104f7565b61126c8161122f565b0190565b6112859060208101905f818303910152611256565b90565b1561128f57565b611297610122565b62461bcd60e51b8152806112ad60048201611270565b0390fd5b6112bd6112c291610a7f565b61039d565b90565b6112cf90546112b1565b90565b60207f656c6c6564000000000000000000000000000000000000000000000000000000917f4c697374696e6720616c7265616479206578656375746564206f722063616e635f8201520152565b61132c60256040926104f7565b611335816112d2565b0190565b61134e9060208101905f81830391015261131f565b90565b1561135857565b611360610122565b62461bcd60e51b81528061137660048201611339565b0390fd5b9061138660ff91610b46565b9181191691161790565b611399906103e2565b90565b90565b906113b46113af6113bb92611390565b61139c565b825461137a565b9055565b90565b6113d66113d16113db926113bf565b610188565b61021b565b90565b60409061140761140e94969593966113fd60608401985f8501906102a8565b60208301906102a8565b019061021e565b565b67ffffffffffffffff811161142e5761142a60209161050b565b0190565b610d01565b9061144561144083611410565b610d3e565b918252565b606090565b3d5f1461146a5761145f3d611433565b903d5f602084013e5b565b61147261144a565b90611468565b5f7f4e4654207472616e73666572206661696c656400000000000000000000000000910152565b6114ac60136020926104f7565b6114b581611478565b0190565b6114ce9060208101905f81830391015261149f565b90565b156114d857565b6114e0610122565b62461bcd60e51b8152806114f6600482016114b9565b0390fd5b909594926115459461153461153e9261152a60809661152060a088019c5f8901906102a8565b60208701906102a8565b604085019061021e565b606083019061021e565b019061021e565b565b966115ee91956115d691896115b0611625979a96989a61157a4261157361156d8461021b565b9161021b565b111561117d565b6115a16115856111a6565b918d94908d8d9192611595610122565b978896602088016111ca565b60208201810382520382610d15565b6115c26115bc8261122b565b91611225565b20946115cd86611dd2565b92909192611def565b6115e86115e28861013b565b9161013b565b14611288565b61161361160e61160861160360048590610387565b6112c5565b156103e2565b611351565b6116206001916004610387565b61139f565b61165b7f00000000000000000000000000000000000000000000000000000000000000003361165330610ea3565b908492611d87565b61167e6116708261166a61045d565b90610ec3565b611678610a13565b90610f0c565b936117d06116a861169a846116946101f46113c2565b90610ec3565b6116a2610a13565b90610f0c565b9161172d6116c16116ba868a90610f2e565b8590610f2e565b611709896117036116f460037f0000000000000000000000000000000000000000000000000000000000000000906101bf565b916116fe83610a98565b610f53565b90610b80565b61172761171860038a906101bf565b9161172283610a98565b610f53565b90610b80565b6117855f80838961176d339161175e8c611745610122565b948593600460208601632142170760e11b8152016113de565b60208201810382520382610d15565b82602082019151925af161177f61144f565b506114d1565b9394913393966117be6117b87f3037e2735283f58b1a36596b09ca7c8b7bc5098c4f44eafc71d4b0ef3bc70c09976101b3565b97610b61565b976117c7610122565b958695866114fa565b0390a3565b906117e597969594939291611102565b565b6117f8906117f3611b56565b611802565b611800611bae565b565b6118387f00000000000000000000000000000000000000000000000000000000000000003361183030610ea3565b908492611d87565b6118608161185a61184b600333906101bf565b9161185583610a98565b610f53565b90610b80565b336118a061188e7f543ba50a5eec5e6178218e364b1d0f396157b3c8fa278522c2cb7fd99407d474926101b3565b92611897610122565b9182918261022b565b0390a2565b6118ae906117e7565b565b916118df6118ee92611913956118c46111a6565b933396929091926118d3610122565b978896602088016111ca565b60208201810382520382610d15565b6119006118fa8261122b565b91611225565b2061190e6001916004610387565b61139f565b565b906119289291611923611b56565b6119da565b611930611bae565b565b60207f20726566756e6400000000000000000000000000000000000000000000000000917f496e73756666696369656e74206f7267616e697a65722066756e647320666f725f8201520152565b61198c60276040926104f7565b61199581611932565b0190565b6119ae9060208101905f81830391015261197f565b90565b156119b857565b6119c0610122565b62461bcd60e51b8152806119d660048201611999565b0390fd5b919091611a0d6119f46119ef600386906101bf565b610a98565b611a06611a008561021b565b9161021b565b10156119b1565b611a3582611a2f611a20600387906101bf565b91611a2a83610a98565b610f2e565b90610b80565b611a5d82611a57611a48600385906101bf565b91611a5283610a98565b610f53565b90610b80565b919091611aa8611a96611a907f3cf6bf4106238dc81f5e9c9f35295ddcecee449fea38c9a58e96f77864d95cec936101b3565b936101b3565b93611a9f610122565b9182918261022b565b0390a3565b90611ab89291611915565b565b611acb90611ac6611c19565b611acd565b565b80611ae8611ae2611add5f610c96565b61013b565b9161013b565b14611af857611af690611ca5565b565b611b1b611b045f610c96565b5f918291631e4fbdf760e01b8352600483016102b5565b0390fd5b611b2890611aba565b565b90565b611b41611b3c611b4692611b2a565b610188565b61021b565b90565b611b536002611b2d565b90565b611b5e611e16565b611b80611b69611b49565b5f611b7a611b75611e8b565b611e9f565b01610b80565b565b90565b611b99611b94611b9e92611b82565b610188565b61021b565b90565b611bab6001611b85565b90565b611bd0611bb9611ba1565b5f611bca611bc5611e8b565b611e9f565b01610b80565b565b91611beb91611be5918491600192611ea6565b156103e2565b611bf25750565b611bfe611c1591610991565b5f918291635274afe760e01b8352600483016102b5565b0390fd5b611c21610e71565b611c3a611c34611c2f611f10565b61013b565b9161013b565b03611c4157565b611c63611c4c611f10565b5f91829163118cdaa760e01b8352600483016102b5565b0390fd5b90611c7860018060a01b0391610b46565b9181191691161790565b90565b90611c9a611c95611ca1926101b3565b611c82565b8254611c67565b9055565b611cae5f610e64565b611cb8825f611c85565b90611cec611ce67f8be0079c531659141344cd1fd0a4f28419497f9722a3daafe3b4186f6b6457e0936101b3565b916101b3565b91611cf5610122565b80611cff816102ff565b0390a3565b90565b611d0f610cc3565b50611d447f0000000000000000000000000000000000000000000000000000000000000000611d3e6001611d04565b90612060565b90565b611d4f610cc3565b50611d847f0000000000000000000000000000000000000000000000000000000000000000611d7e6002611d04565b90612060565b90565b9290611da492611d9e9285929190916001936120ae565b156103e2565b611dab5750565b611db7611dce91610991565b5f918291635274afe760e01b8352600483016102b5565b0390fd5b611dec90611dde610cd0565b50611de7612127565b6121e1565b90565b92611e0a92611e1394611e00610ccc565b50929091926122b4565b909291926123f4565b90565b611e1e6124c5565b611e2457565b5f633ee5aeb560e01b815280611e3c600482016102ff565b0390fd5b90565b611e57611e52611e5c92611e40565b610b46565b610337565b90565b611e887f9b779b17422d0df92223018b32b4d1fa46e071723d6817e2486d003becc55f00611e43565b90565b611e93610cd0565b50611e9c611e5f565b90565b90565b5f90565b9091939293611eb3611ea2565b5063a9059cbb60e01b92604051935f525f1960601c1660045260245260205f60448180855af19360015f5114851615611eee575b5050604052565b8492941516611f07575f903b113d151616915f80611ee7565b833d5f823e3d90fd5b611f18610ccc565b503390565b90565b611f34611f2f611f3992611f1d565b610b46565b610337565b90565b611f4660ff611f20565b90565b634e487b7160e01b5f52602260045260245ffd5b9060016002830492168015611f7d575b6020831014611f7857565b611f49565b91607f1691611f6d565b60209181520190565b5f5260205f2090565b905f9291805490611fb3611fac83611f5d565b8094611f87565b916001811690815f1461200a5750600114611fce575b505050565b611fdb9192939450611f90565b915f925b818410611ff257505001905f8080611fc9565b60018160209295939554848601520191019290611fdf565b92949550505060ff19168252151560200201905f8080611fc9565b9061202f91611f99565b90565b9061205261204b92612042610122565b93848092612025565b0383610d15565b565b61205d90612032565b90565b90612069610cc3565b506120738261037b565b61208c612086612081611f3c565b610337565b91610337565b14155f146120a1575061209e9061258a565b90565b6120ab9150612054565b90565b919493949290926120bd611ea2565b506323b872dd60e01b93604051945f525f1960601c166004525f1960601c1660245260445260205f60648180855af19360015f5114851615612105575b50506040525f606052565b849294151661211e575f903b113d151616915f806120fa565b833d5f823e3d90fd5b61212f610cd0565b5061213930610cd9565b61216b6121657f000000000000000000000000000000000000000000000000000000000000000061013b565b9161013b565b14806121a7575b5f1461219c577f000000000000000000000000000000000000000000000000000000000000000090565b6121a461262b565b90565b50466121db6121d57f000000000000000000000000000000000000000000000000000000000000000061021b565b9161021b565b14612172565b6042916121ec610cd0565b50604051917f19010000000000000000000000000000000000000000000000000000000000008352600283015260228201522090565b5f90565b61223261223791610a7f565b610b61565b90565b90565b61225161224c6122569261223a565b610188565b61021b565b90565b61226290610751565b9052565b61229b6122a294612291606094989795612287608086019a5f870190610546565b6020850190612259565b6040830190610546565b0190610546565b565b6122ac610122565b3d5f823e3d90fd5b9392936122bf610ccc565b506122c8612222565b506122d1610cd0565b506122db85612226565b61230d6123077f7fffffffffffffffffffffffffffffff5d576e7357a4501ddfe92f46681b20a061223d565b9161021b565b1161239a5790612330602094955f94939293612327610122565b94859485612266565b838052039060015afa15612395576123485f51610b46565b8061236361235d6123585f610c96565b61013b565b9161013b565b14612379575f916123735f610ce5565b91929190565b506123835f610c96565b60019161238f5f610ce5565b91929190565b6122a4565b5050506123a65f610c96565b9060039291929190565b634e487b7160e01b5f52602160045260245ffd5b600411156123ce57565b6123b0565b906123dd826123c4565b565b91906123f2905f60208501940190610546565b565b806124076124015f6123d3565b916123d3565b145f14612412575050565b8061242661242060016123d3565b916123d3565b145f14612449575f63f645eedf60e01b815280612445600482016102ff565b0390fd5b8061245d61245760026123d3565b916123d3565b145f1461248b5761248761247083612226565b5f91829163fce698f760e01b83526004830161022b565b0390fd5b61249e61249860036123d3565b916123d3565b146124a65750565b6124c1905f9182916335e2f38360e21b8352600483016123df565b0390fd5b6124cd611ea2565b506124e85f6124e26124dd611e8b565b611e9f565b01610a98565b6125016124fb6124f6611b49565b61021b565b9161021b565b1490565b90565b61251c61251761252192612505565b610188565b61021b565b90565b67ffffffffffffffff81116125425761253e60209161050b565b0190565b610d01565b9061255961255483612524565b610d3e565b918252565b369037565b9061258861257083612547565b9260208061257e8693612524565b920191039061255e565b565b612592610cc3565b5061259c81612704565b906125af6125aa6020612508565b612563565b918252602082015290565b7f8b73c3c69bb8fe3d512ecc4cf759cc79239f7b179b0ffacaa9a75d522b39400f90565b90959492612629946126186126229261260e60809661260460a088019c5f890190610546565b6020870190610546565b6040850190610546565b606083019061021e565b01906102a8565b565b612633610cd0565b5061263c6125ba565b6126b37f0000000000000000000000000000000000000000000000000000000000000000916126a47f00000000000000000000000000000000000000000000000000000000000000004661268f30610cd9565b91612698610122565b968795602087016125de565b60208201810382520382610d15565b6126c56126bf8261122b565b91611225565b2090565b6126dd6126d86126e292611f1d565b610188565b61021b565b90565b90565b6126fc6126f7612701926126e5565b610188565b61021b565b90565b61271961271e91612713610cc8565b5061037b565b612226565b61272860ff6126c9565b168061273d612737601f6126e8565b9161021b565b116127455790565b5f632cd44ac360e21b81528061275d600482016102ff565b0390fdfea26469706673582212201346d8f302692dfa0269e676ab5d2f03e6fb2eebba9e78458b051521d208c94664736f6c634300081e0033","linkReferences":{}},"methodIdentifiers":{"MAX_BPS()":"fd967f47","PLATFORM_FEE_BPS()":"539aa77f","TREASURY()":"2d2c5565","USDC_TOKEN()":"fa569274","balances(address)":"27e235e3","buyTicket(address,uint256,uint256,uint256,address,uint8,bytes32,bytes32)":"b011b29a","cancelListing(address,uint256,uint256,uint256)":"b7e6fbb0","cancelledOrExecuted(bytes32)":"4e203984","deposit(uint256)":"b6b55f25","eip712Domain()":"84b0196e","owner()":"8da5cb5b","processPrimarySale(address,address,uint256)":"a62181a0","processRefund(address,address,uint256)":"b9fc6046","renounceOwnership()":"715018a6","transferOwnership(address)":"f2fde38b","withdraw()":"3ccfd60b"},"id":54}