{"abi":[{"type":"constructor","inputs":[{"name":"uri","type":"string","internalType":"string"}],"stateMutability":"nonpayable"},{"type":"function","name":"DEFAULT_ADMIN_ROLE","inputs":[],"outputs":[{"name":"","type":"bytes32","internalType":"bytes32"}],"stateMutability":"view"},{"type":"function","name":"MINTER_ROLE","inputs":[],"outputs":[{"name":"","type":"bytes32","internalType":"bytes32"}],"stateMutability":"view"},{"type":"function","name":"ORGANIZER_ROLE","inputs":[],"outputs":[{"name":"","type":"bytes32","internalType":"bytes32"}],"stateMutability":"view"},{"type":"function","name":"balanceOf","inputs":[{"name":"account","type":"address","internalType":"address"},{"name":"id","type":"uint256","internalType":"uint256"}],"outputs":[{"name":"","type":"uint256","internalType":"uint256"}],"stateMutability":"view"},{"type":"function","name":"balanceOfBatch","inputs":[{"name":"accounts","type":"address[]","internalType":"address[]"},{"name":"ids","type":"uint256[]","internalType":"uint256[]"}],"outputs":[{"name":"","type":"uint256[]","internalType":"uint256[]"}],"stateMutability":"view"},{"type":"function","name":"eventRules","inputs":[{"name":"","type":"uint256","internalType":"uint256"}],"outputs":[{"name":"maxPerWallet","type":"uint256","internalType":"uint256"},{"name":"maxResalePrice","type":"uint256","internalType":"uint256"},{"name":"transferUnlockTime","type":"uint256","internalType":"uint256"},{"name":"transferable","type":"bool","internalType":"bool"}],"stateMutability":"view"},{"type":"function","name":"getRoleAdmin","inputs":[{"name":"role","type":"bytes32","internalType":"bytes32"}],"outputs":[{"name":"","type":"bytes32","internalType":"bytes32"}],"stateMutability":"view"},{"type":"function","name":"grantRole","inputs":[{"name":"role","type":"bytes32","internalType":"bytes32"},{"name":"account","type":"address","internalType":"address"}],"outputs":[],"stateMutability":"nonpayable"},{"type":"function","name":"hasRole","inputs":[{"name":"role","type":"bytes32","internalType":"bytes32"},{"name":"account","type":"address","internalType":"address"}],"outputs":[{"name":"","type":"bool","internalType":"bool"}],"stateMutability":"view"},{"type":"function","name":"isApprovedForAll","inputs":[{"name":"account","type":"address","internalType":"address"},{"name":"operator","type":"address","internalType":"address"}],"outputs":[{"name":"","type":"bool","internalType":"bool"}],"stateMutability":"view"},{"type":"function","name":"mintBatch","inputs":[{"name":"to","type":"address","internalType":"address"},{"name":"ids","type":"uint256[]","internalType":"uint256[]"},{"name":"amounts","type":"uint256[]","internalType":"uint256[]"},{"name":"eventId","type":"uint256","internalType":"uint256"}],"outputs":[],"stateMutability":"nonpayable"},{"type":"function","name":"pause","inputs":[],"outputs":[],"stateMutability":"nonpayable"},{"type":"function","name":"paused","inputs":[],"outputs":[{"name":"","type":"bool","internalType":"bool"}],"stateMutability":"view"},{"type":"function","name":"redeemTicket","inputs":[{"name":"tokenId","type":"uint256","internalType":"uint256"}],"outputs":[],"stateMutability":"nonpayable"},{"type":"function","name":"redeemed","inputs":[{"name":"","type":"uint256","internalType":"uint256"}],"outputs":[{"name":"","type":"bool","internalType":"bool"}],"stateMutability":"view"},{"type":"function","name":"renounceRole","inputs":[{"name":"role","type":"bytes32","internalType":"bytes32"},{"name":"callerConfirmation","type":"address","internalType":"address"}],"outputs":[],"stateMutability":"nonpayable"},{"type":"function","name":"revokeRole","inputs":[{"name":"role","type":"bytes32","internalType":"bytes32"},{"name":"account","type":"address","internalType":"address"}],"outputs":[],"stateMutability":"nonpayable"},{"type":"function","name":"royaltyInfo","inputs":[{"name":"tokenId","type":"uint256","internalType":"uint256"},{"name":"salePrice","type":"uint256","internalType":"uint256"}],"outputs":[{"name":"receiver","type":"address","internalType":"address"},{"name":"amount","type":"uint256","internalType":"uint256"}],"stateMutability":"view"},{"type":"function","name":"safeBatchTransferFrom","inputs":[{"name":"from","type":"address","internalType":"address"},{"name":"to","type":"address","internalType":"address"},{"name":"ids","type":"uint256[]","internalType":"uint256[]"},{"name":"values","type":"uint256[]","internalType":"uint256[]"},{"name":"data","type":"bytes","internalType":"bytes"}],"outputs":[],"stateMutability":"nonpayable"},{"type":"function","name":"safeTransferFrom","inputs":[{"name":"from","type":"address","internalType":"address"},{"name":"to","type":"address","internalType":"address"},{"name":"id","type":"uint256","internalType":"uint256"},{"name":"amount","type":"uint256","internalType":"uint256"},{"name":"data","type":"bytes","internalType":"bytes"}],"outputs":[],"stateMutability":"nonpayable"},{"type":"function","name":"setApprovalForAll","inputs":[{"name":"operator","type":"address","internalType":"address"},{"name":"approved","type":"bool","internalType":"bool"}],"outputs":[],"stateMutability":"nonpayable"},{"type":"function","name":"setDefaultRoyalty","inputs":[{"name":"receiver","type":"address","internalType":"address"},{"name":"feeNumerator","type":"uint96","internalType":"uint96"}],"outputs":[],"stateMutability":"nonpayable"},{"type":"function","name":"setEventRules","inputs":[{"name":"eventId","type":"uint256","internalType":"uint256"},{"name":"maxPerWallet","type":"uint256","internalType":"uint256"},{"name":"maxResalePrice","type":"uint256","internalType":"uint256"},{"name":"transferUnlockTime","type":"uint256","internalType":"uint256"},{"name":"transferable","type":"bool","internalType":"bool"}],"outputs":[],"stateMutability":"nonpayable"},{"type":"function","name":"supportsInterface","inputs":[{"name":"interfaceId","type":"bytes4","internalType":"bytes4"}],"outputs":[{"name":"","type":"bool","internalType":"bool"}],"stateMutability":"view"},{"type":"function","name":"ticketsClaimed","inputs":[{"name":"","type":"address","internalType":"address"},{"name":"","type":"uint256","internalType":"uint256"}],"outputs":[{"name":"","type":"uint256","internalType":"uint256"}],"stateMutability":"view"},{"type":"function","name":"unpause","inputs":[],"outputs":[],"stateMutability":"nonpayable"},{"type":"function","name":"uri","inputs":[{"name":"","type":"uint256","internalType":"uint256"}],"outputs":[{"name":"","type":"string","internalType":"string"}],"stateMutability":"view"},{"type":"event","name":"ApprovalForAll","inputs":[{"name":"account","type":"address","indexed":true,"internalType":"address"},{"name":"operator","type":"address","indexed":true,"internalType":"address"},{"name":"approved","type":"bool","indexed":false,"internalType":"bool"}],"anonymous":false},{"type":"event","name":"Paused","inputs":[{"name":"account","type":"address","indexed":false,"internalType":"address"}],"anonymous":false},{"type":"event","name":"RoleAdminChanged","inputs":[{"name":"role","type":"bytes32","indexed":true,"internalType":"bytes32"},{"name":"previousAdminRole","type":"bytes32","indexed":true,"internalType":"bytes32"},{"name":"newAdminRole","type":"bytes32","indexed":true,"internalType":"bytes32"}],"anonymous":false},{"type":"event","name":"RoleGranted","inputs":[{"name":"role","type":"bytes32","indexed":true,"internalType":"bytes32"},{"name":"account","type":"address","indexed":true,"internalType":"address"},{"name":"sender","type":"address","indexed":true,"internalType":"address"}],"anonymous":false},{"type":"event","name":"RoleRevoked","inputs":[{"name":"role","type":"bytes32","indexed":true,"internalType":"bytes32"},{"name":"account","type":"address","indexed":true,"internalType":"address"},{"name":"sender","type":"address","indexed":true,"internalType":"address"}],"anonymous":false},{"type":"event","name":"TicketMinted","inputs":[{"name":"to","type":"address","indexed":true,"internalType":"address"},{"name":"tokenId","type":"uint256","indexed":true,"internalType":"uint256"},{"name":"eventId","type":"uint256","indexed":false,"internalType":"uint256"}],"anonymous":false},{"type":"event","name":"TicketRedeemed","inputs":[{"name":"tokenId","type":"uint256","indexed":true,"internalType":"uint256"},{"name":"redeemedBy","type":"address","indexed":true,"internalType":"address"}],"anonymous":false},{"type":"event","name":"TransferBatch","inputs":[{"name":"operator","type":"address","indexed":true,"internalType":"address"},{"name":"from","type":"address","indexed":true,"internalType":"address"},{"name":"to","type":"address","indexed":true,"internalType":"address"},{"name":"ids","type":"uint256[]","indexed":false,"internalType":"uint256[]"},{"name":"values","type":"uint256[]","indexed":false,"internalType":"uint256[]"}],"anonymous":false},{"type":"event","name":"TransferSingle","inputs":[{"name":"operator","type":"address","indexed":true,"internalType":"address"},{"name":"from","type":"address","indexed":true,"internalType":"address"},{"name":"to","type":"address","indexed":true,"internalType":"address"},{"name":"id","type":"uint256","indexed":false,"internalType":"uint256"},{"name":"value","type":"uint256","indexed":false,"internalType":"uint256"}],"anonymous":false},{"type":"event","name":"URI","inputs":[{"name":"value","type":"string","indexed":false,"internalType":"string"},{"name":"id","type":"uint256","indexed":true,"internalType":"uint256"}],"anonymous":false},{"type":"event","name":"Unpaused","inputs":[{"name":"account","type":"address","indexed":false,"internalType":"address"}],"anonymous":false},{"type":"error","name":"AccessControlBadConfirmation","inputs":[]},{"type":"error","name":"AccessControlUnauthorizedAccount","inputs":[{"name":"account","type":"address","internalType":"address"},{"name":"neededRole","type":"bytes32","internalType":"bytes32"}]},{"type":"error","name":"ERC1155InsufficientBalance","inputs":[{"name":"sender","type":"address","internalType":"address"},{"name":"balance","type":"uint256","internalType":"uint256"},{"name":"needed","type":"uint256","internalType":"uint256"},{"name":"tokenId","type":"uint256","internalType":"uint256"}]},{"type":"error","name":"ERC1155InvalidApprover","inputs":[{"name":"approver","type":"address","internalType":"address"}]},{"type":"error","name":"ERC1155InvalidArrayLength","inputs":[{"name":"idsLength","type":"uint256","internalType":"uint256"},{"name":"valuesLength","type":"uint256","internalType":"uint256"}]},{"type":"error","name":"ERC1155InvalidOperator","inputs":[{"name":"operator","type":"address","internalType":"address"}]},{"type":"error","name":"ERC1155InvalidReceiver","inputs":[{"name":"receiver","type":"address","internalType":"address"}]},{"type":"error","name":"ERC1155InvalidSender","inputs":[{"name":"sender","type":"address","internalType":"address"}]},{"type":"error","name":"ERC1155MissingApprovalForAll","inputs":[{"name":"operator","type":"address","internalType":"address"},{"name":"owner","type":"address","internalType":"address"}]},{"type":"error","name":"ERC2981InvalidDefaultRoyalty","inputs":[{"name":"numerator","type":"uint256","internalType":"uint256"},{"name":"denominator","type":"uint256","internalType":"uint256"}]},{"type":"error","name":"ERC2981InvalidDefaultRoyaltyReceiver","inputs":[{"name":"receiver","type":"address","internalType":"address"}]},{"type":"error","name":"ERC2981InvalidTokenRoyalty","inputs":[{"name":"tokenId","type":"uint256","internalType":"uint256"},{"name":"numerator","type":"uint256","internalType":"uint256"},{"name":"denominator","type":"uint256","internalType":"uint256"}]},{"type":"error","name":"ERC2981InvalidTokenRoyaltyReceiver","inputs":[{"name":"tokenId","type":"uint256","internalType":"uint256"},{"name":"receiver","type":"address","internalType":"address"}]},{"type":"error","name":"EnforcedPause","inputs":[]},{"type":"error","name":"ExpectedPause","inputs":[]},{"type":"error","name":"ReentrancyGuardReentrantCall","inputs":[]}],"bytecode":{"object":"0x608060405234801561000f575f5ffd5b50604051613f29380380613f29833981810160405281019061003191906103a3565b80610041816100b060201b60201c565b5060016100606100556100c360201b60201c565b6100ec60201b60201c565b5f01819055506100785f5f1b336100f560201b60201c565b506100a97ff0887ba65ee2024ea881d91b74c2450ef19e1557f03bed3ea9f16b037cbe2dc9336100f560201b60201c565b50506106c9565b80600290816100bf91906105fa565b5050565b5f7f9b779b17422d0df92223018b32b4d1fa46e071723d6817e2486d003becc55f005f1b905090565b5f819050919050565b5f61010683836101eb60201b60201c565b6101e157600160055f8581526020019081526020015f205f015f8473ffffffffffffffffffffffffffffffffffffffff1673ffffffffffffffffffffffffffffffffffffffff1681526020019081526020015f205f6101000a81548160ff02191690831515021790555061017e61024f60201b60201c565b73ffffffffffffffffffffffffffffffffffffffff168273ffffffffffffffffffffffffffffffffffffffff16847f2f8788117e7eff1d82e926ec794901d17c78024a50270940304540a733656f0d60405160405180910390a4600190506101e5565b5f90505b92915050565b5f60055f8481526020019081526020015f205f015f8373ffffffffffffffffffffffffffffffffffffffff1673ffffffffffffffffffffffffffffffffffffffff1681526020019081526020015f205f9054906101000a900460ff16905092915050565b5f33905090565b5f604051905090565b5f5ffd5b5f5ffd5b5f5ffd5b5f5ffd5b5f601f19601f8301169050919050565b7f4e487b71000000000000000000000000000000000000000000000000000000005f52604160045260245ffd5b6102b58261026f565b810181811067ffffffffffffffff821117156102d4576102d361027f565b5b80604052505050565b5f6102e6610256565b90506102f282826102ac565b919050565b5f67ffffffffffffffff8211156103115761031061027f565b5b61031a8261026f565b9050602081019050919050565b8281835e5f83830152505050565b5f610347610342846102f7565b6102dd565b9050828152602081018484840111156103635761036261026b565b5b61036e848285610327565b509392505050565b5f82601f83011261038a57610389610267565b5b815161039a848260208601610335565b91505092915050565b5f602082840312156103b8576103b761025f565b5b5f82015167ffffffffffffffff8111156103d5576103d4610263565b5b6103e184828501610376565b91505092915050565b5f81519050919050565b7f4e487b71000000000000000000000000000000000000000000000000000000005f52602260045260245ffd5b5f600282049050600182168061043857607f821691505b60208210810361044b5761044a6103f4565b5b50919050565b5f819050815f5260205f209050919050565b5f6020601f8301049050919050565b5f82821b905092915050565b5f600883026104ad7fffffffffffffffffffffffffffffffffffffffffffffffffffffffffffffffff82610472565b6104b78683610472565b95508019841693508086168417925050509392505050565b5f819050919050565b5f819050919050565b5f6104fb6104f66104f1846104cf565b6104d8565b6104cf565b9050919050565b5f819050919050565b610514836104e1565b61052861052082610502565b84845461047e565b825550505050565b5f5f905090565b61053f610530565b61054a81848461050b565b505050565b5b8181101561056d576105625f82610537565b600181019050610550565b5050565b601f8211156105b25761058381610451565b61058c84610463565b8101602085101561059b578190505b6105af6105a785610463565b83018261054f565b50505b505050565b5f82821c905092915050565b5f6105d25f19846008026105b7565b1980831691505092915050565b5f6105ea83836105c3565b9150826002028217905092915050565b610603826103ea565b67ffffffffffffffff81111561061c5761061b61027f565b5b6106268254610421565b610631828285610571565b5f60209050601f831160018114610662575f8415610650578287015190505b61065a85826105df565b8655506106c1565b601f19841661067086610451565b5f5b8281101561069757848901518255600182019150602085019450602081019050610672565b868310156106b457848901516106b0601f8916826105c3565b8355505b6001600288020188555050505b505050505050565b613853806106d65f395ff3fe608060405234801561000f575f5ffd5b50600436106101a6575f3560e01c80634e1273f4116100f7578063a22cb46511610095578063d547741f1161006f578063d547741f146104c7578063e985e9c5146104e3578063f242432a14610513578063f2c030ec1461052f576101a6565b8063a22cb46514610471578063b7ea36a41461048d578063d5391393146104a9576101a6565b80637ed0f1c1116100d15780637ed0f1c1146103e95780638456cb591461041957806391d1485414610423578063a217fddf14610453576101a6565b80634e1273f41461037d5780635c975abb146103ad5780637909cb59146103cb576101a6565b8063248a9ca3116101645780632f2ff15d1161013e5780632f2ff15d1461030b57806336568abe1461032757806336ce9c8f146103435780633f4ba83a14610373576101a6565b8063248a9ca31461028e5780632a55205a146102be5780632eb2c2d6146102ef576101a6565b8062fdd58e146101aa57806301ffc9a7146101da57806304634d8d1461020a57806309f3e20b146102265780630e89341c1461024257806315f59d7f14610272575b5f5ffd5b6101c460048036038101906101bf91906126f6565b610562565b6040516101d19190612743565b60405180910390f35b6101f460048036038101906101ef91906127b1565b6105b7565b60405161020191906127f6565b60405180910390f35b610224600480360381019061021f9190612850565b6105c8565b005b610240600480360381019061023b91906129de565b6105e3565b005b61025c60048036038101906102579190612a7a565b61083e565b6040516102699190612b05565b60405180910390f35b61028c60048036038101906102879190612a7a565b6108d0565b005b6102a860048036038101906102a39190612b58565b6109c9565b6040516102b59190612b92565b60405180910390f35b6102d860048036038101906102d39190612bab565b6109e6565b6040516102e6929190612bf8565b60405180910390f35b61030960048036038101906103049190612ccf565b610b08565b005b61032560048036038101906103209190612d9a565b610baf565b005b610341600480360381019061033c9190612d9a565b610bd1565b005b61035d600480360381019061035891906126f6565b610c4c565b60405161036a9190612743565b60405180910390f35b61037b610c6c565b005b61039760048036038101906103929190612e98565b610c83565b6040516103a49190612fc5565b60405180910390f35b6103b5610d8d565b6040516103c291906127f6565b60405180910390f35b6103d3610da2565b6040516103e09190612b92565b60405180910390f35b61040360048036038101906103fe9190612a7a565b610dc6565b60405161041091906127f6565b60405180910390f35b610421610de3565b005b61043d60048036038101906104389190612d9a565b610dfa565b60405161044a91906127f6565b60405180910390f35b61045b610e5e565b6040516104689190612b92565b60405180910390f35b61048b6004803603810190610486919061300f565b610e64565b005b6104a760048036038101906104a2919061304d565b610e7a565b005b6104b1610f1e565b6040516104be9190612b92565b60405180910390f35b6104e160048036038101906104dc9190612d9a565b610f42565b005b6104fd60048036038101906104f891906130c4565b610f64565b60405161050a91906127f6565b60405180910390f35b61052d60048036038101906105289190613102565b610ff2565b005b61054960048036038101906105449190612a7a565b611171565b6040516105599493929190613195565b60405180910390f35b5f5f5f8381526020019081526020015f205f8473ffffffffffffffffffffffffffffffffffffffff1673ffffffffffffffffffffffffffffffffffffffff1681526020019081526020015f2054905092915050565b5f6105c1826111a9565b9050919050565b5f5f1b6105d481611222565b6105de8383611236565b505050565b7ff0887ba65ee2024ea881d91b74c2450ef19e1557f03bed3ea9f16b037cbe2dc961060d81611222565b6106156113d1565b5f60075f8481526020019081526020015f206040518060800160405290815f82015481526020016001820154815260200160028201548152602001600382015f9054906101000a900460ff16151515158152505090505f5f90505f5f90505b85518110156106b2578581815181106106905761068f6131d8565b5b6020026020010151826106a39190613232565b91508080600101915050610674565b50815f01518160085f8a73ffffffffffffffffffffffffffffffffffffffff1673ffffffffffffffffffffffffffffffffffffffff1681526020019081526020015f205f8781526020019081526020015f205461070f9190613232565b1115610750576040517f08c379a0000000000000000000000000000000000000000000000000000000008152600401610747906132af565b60405180910390fd5b8060085f8973ffffffffffffffffffffffffffffffffffffffff1673ffffffffffffffffffffffffffffffffffffffff1681526020019081526020015f205f8681526020019081526020015f205f8282546107ab9190613232565b925050819055506107cc87878760405180602001604052805f815250611412565b855f815181106107df576107de6131d8565b5b60200260200101518773ffffffffffffffffffffffffffffffffffffffff167fcbea9c23945e351434f7ae5b1a435091cc278dd9dd0eba4c04203674014ca7d78660405161082d9190612743565b60405180910390a350505050505050565b60606002805461084d906132fa565b80601f0160208091040260200160405190810160405280929190818152602001828054610879906132fa565b80156108c45780601f1061089b576101008083540402835291602001916108c4565b820191905f5260205f20905b8154815290600101906020018083116108a757829003601f168201915b50505050509050919050565b7f5dd10662f89eb5beab8229dc002469949533556d433e73af3981b3939fb8d4366108fa81611222565b60095f8381526020019081526020015f205f9054906101000a900460ff1615610958576040517f08c379a000000000000000000000000000000000000000000000000000000000815260040161094f90613374565b60405180910390fd5b600160095f8481526020019081526020015f205f6101000a81548160ff0219169083151502179055503373ffffffffffffffffffffffffffffffffffffffff16827f716bb19bdc2c35c51f08204334d6e0362bbe5428bbda94d186a1f2c8fa87b10c60405160405180910390a35050565b5f60055f8381526020019081526020015f20600101549050919050565b5f5f5f60045f8681526020019081526020015f2090505f815f015f9054906101000a900473ffffffffffffffffffffffffffffffffffffffff1690505f825f0160149054906101000a90046bffffffffffffffffffffffff1690505f73ffffffffffffffffffffffffffffffffffffffff168273ffffffffffffffffffffffffffffffffffffffff1603610aba5760035f015f9054906101000a900473ffffffffffffffffffffffffffffffffffffffff16915060035f0160149054906101000a90046bffffffffffffffffffffffff1690505b5f610ac3611495565b6bffffffffffffffffffffffff16826bffffffffffffffffffffffff1688610aeb9190613392565b610af59190613400565b9050828195509550505050509250929050565b5f610b1161149e565b90508073ffffffffffffffffffffffffffffffffffffffff168673ffffffffffffffffffffffffffffffffffffffff1614158015610b565750610b548682610f64565b155b15610b9a5780866040517fe237d922000000000000000000000000000000000000000000000000000000008152600401610b91929190613430565b60405180910390fd5b610ba786868686866114a5565b505050505050565b610bb8826109c9565b610bc181611222565b610bcb8383611599565b50505050565b610bd961149e565b73ffffffffffffffffffffffffffffffffffffffff168173ffffffffffffffffffffffffffffffffffffffff1614610c3d576040517f6697b23200000000000000000000000000000000000000000000000000000000815260040160405180910390fd5b610c478282611683565b505050565b6008602052815f5260405f20602052805f5260405f205f91509150505481565b5f5f1b610c7881611222565b610c8061176d565b50565b60608151835114610ccf57815183516040517f5b059991000000000000000000000000000000000000000000000000000000008152600401610cc6929190613457565b60405180910390fd5b5f835167ffffffffffffffff811115610ceb57610cea6128a2565b5b604051908082528060200260200182016040528015610d195781602001602082028036833780820191505090505b5090505f5f90505b8451811015610d8257610d58610d4082876117ce90919063ffffffff16565b610d5383876117e190919063ffffffff16565b610562565b828281518110610d6b57610d6a6131d8565b5b602002602001018181525050806001019050610d21565b508091505092915050565b5f60065f9054906101000a900460ff16905090565b7f5dd10662f89eb5beab8229dc002469949533556d433e73af3981b3939fb8d43681565b6009602052805f5260405f205f915054906101000a900460ff1681565b5f5f1b610def81611222565b610df76117f4565b50565b5f60055f8481526020019081526020015f205f015f8373ffffffffffffffffffffffffffffffffffffffff1673ffffffffffffffffffffffffffffffffffffffff1681526020019081526020015f205f9054906101000a900460ff16905092915050565b5f5f1b81565b610e76610e6f61149e565b8383611856565b5050565b7f5dd10662f89eb5beab8229dc002469949533556d433e73af3981b3939fb8d436610ea481611222565b604051806080016040528086815260200185815260200184815260200183151581525060075f8881526020019081526020015f205f820151815f015560208201518160010155604082015181600201556060820151816003015f6101000a81548160ff021916908315150217905550905050505050505050565b7ff0887ba65ee2024ea881d91b74c2450ef19e1557f03bed3ea9f16b037cbe2dc981565b610f4b826109c9565b610f5481611222565b610f5e8383611683565b50505050565b5f60015f8473ffffffffffffffffffffffffffffffffffffffff1673ffffffffffffffffffffffffffffffffffffffff1681526020019081526020015f205f8373ffffffffffffffffffffffffffffffffffffffff1673ffffffffffffffffffffffffffffffffffffffff1681526020019081526020015f205f9054906101000a900460ff16905092915050565b610ffa6119bf565b6110026113d1565b5f620f4240846110129190613400565b90505f60075f8381526020019081526020015f206040518060800160405290815f82015481526020016001820154815260200160028201548152602001600382015f9054906101000a900460ff161515151581525050905080606001516110ae576040517f08c379a00000000000000000000000000000000000000000000000000000000081526004016110a5906134c8565b60405180910390fd5b80604001514210156110f5576040517f08c379a00000000000000000000000000000000000000000000000000000000081526004016110ec90613530565b60405180910390fd5b60095f8681526020019081526020015f205f9054906101000a900460ff1615611153576040517f08c379a000000000000000000000000000000000000000000000000000000000815260040161114a90613598565b60405180910390fd5b61116087878787876119e1565b505061116a611a88565b5050505050565b6007602052805f5260405f205f91509050805f015490806001015490806002015490806003015f9054906101000a900460ff16905084565b5f7f7965db0b000000000000000000000000000000000000000000000000000000007bffffffffffffffffffffffffffffffffffffffffffffffffffffffff1916827bffffffffffffffffffffffffffffffffffffffffffffffffffffffff1916148061121b575061121a82611aa2565b5b9050919050565b6112338161122e61149e565b611b1b565b50565b5f61123f611495565b6bffffffffffffffffffffffff16905080826bffffffffffffffffffffffff1611156112a45781816040517f6f483d0900000000000000000000000000000000000000000000000000000000815260040161129b9291906135ef565b60405180910390fd5b5f73ffffffffffffffffffffffffffffffffffffffff168373ffffffffffffffffffffffffffffffffffffffff1603611314575f6040517fb6d9900a00000000000000000000000000000000000000000000000000000000815260040161130b9190613616565b60405180910390fd5b60405180604001604052808473ffffffffffffffffffffffffffffffffffffffff168152602001836bffffffffffffffffffffffff1681525060035f820151815f015f6101000a81548173ffffffffffffffffffffffffffffffffffffffff021916908373ffffffffffffffffffffffffffffffffffffffff1602179055506020820151815f0160146101000a8154816bffffffffffffffffffffffff02191690836bffffffffffffffffffffffff160217905550905050505050565b6113d9610d8d565b15611410576040517fd93c066500000000000000000000000000000000000000000000000000000000815260040160405180910390fd5b565b5f73ffffffffffffffffffffffffffffffffffffffff168473ffffffffffffffffffffffffffffffffffffffff1603611482575f6040517f57f447ce0000000000000000000000000000000000000000000000000000000081526004016114799190613616565b60405180910390fd5b61148f5f85858585611b6c565b50505050565b5f612710905090565b5f33905090565b5f73ffffffffffffffffffffffffffffffffffffffff168473ffffffffffffffffffffffffffffffffffffffff1603611515575f6040517f57f447ce00000000000000000000000000000000000000000000000000000000815260040161150c9190613616565b60405180910390fd5b5f73ffffffffffffffffffffffffffffffffffffffff168573ffffffffffffffffffffffffffffffffffffffff1603611585575f6040517f01a8351400000000000000000000000000000000000000000000000000000000815260040161157c9190613616565b60405180910390fd5b6115928585858585611b6c565b5050505050565b5f6115a48383610dfa565b61167957600160055f8581526020019081526020015f205f015f8473ffffffffffffffffffffffffffffffffffffffff1673ffffffffffffffffffffffffffffffffffffffff1681526020019081526020015f205f6101000a81548160ff02191690831515021790555061161661149e565b73ffffffffffffffffffffffffffffffffffffffff168273ffffffffffffffffffffffffffffffffffffffff16847f2f8788117e7eff1d82e926ec794901d17c78024a50270940304540a733656f0d60405160405180910390a46001905061167d565b5f90505b92915050565b5f61168e8383610dfa565b15611763575f60055f8581526020019081526020015f205f015f8473ffffffffffffffffffffffffffffffffffffffff1673ffffffffffffffffffffffffffffffffffffffff1681526020019081526020015f205f6101000a81548160ff02191690831515021790555061170061149e565b73ffffffffffffffffffffffffffffffffffffffff168273ffffffffffffffffffffffffffffffffffffffff16847ff6391f5c32d9c69d2a47ea670b442974b53935d1edc7fd64eb21e047a839171b60405160405180910390a460019050611767565b5f90505b92915050565b611775611c18565b5f60065f6101000a81548160ff0219169083151502179055507f5db9ee0a495bf2e6ff9c91a7834c1ba4fdd244a5e8aa4e537bd38aeae4b073aa6117b761149e565b6040516117c49190613616565b60405180910390a1565b5f60208202602084010151905092915050565b5f60208202602084010151905092915050565b6117fc6113d1565b600160065f6101000a81548160ff0219169083151502179055507f62e78cea01bee320cd4e420270b5ea74000d11b0c9f74754ebdbfc544b05a25861183f61149e565b60405161184c9190613616565b60405180910390a1565b5f73ffffffffffffffffffffffffffffffffffffffff168273ffffffffffffffffffffffffffffffffffffffff16036118c6575f6040517fced3e1000000000000000000000000000000000000000000000000000000000081526004016118bd9190613616565b60405180910390fd5b8060015f8573ffffffffffffffffffffffffffffffffffffffff1673ffffffffffffffffffffffffffffffffffffffff1681526020019081526020015f205f8473ffffffffffffffffffffffffffffffffffffffff1673ffffffffffffffffffffffffffffffffffffffff1681526020019081526020015f205f6101000a81548160ff0219169083151502179055508173ffffffffffffffffffffffffffffffffffffffff168373ffffffffffffffffffffffffffffffffffffffff167f17307eab39ab6107e8899845ad3d59bd9653f200f220920489ca2b5937696c31836040516119b291906127f6565b60405180910390a3505050565b6119c7611c58565b60026119d96119d4611c99565b611cc2565b5f0181905550565b5f6119ea61149e565b90508073ffffffffffffffffffffffffffffffffffffffff168673ffffffffffffffffffffffffffffffffffffffff1614158015611a2f5750611a2d8682610f64565b155b15611a735780866040517fe237d922000000000000000000000000000000000000000000000000000000008152600401611a6a929190613430565b60405180910390fd5b611a808686868686611ccb565b505050505050565b6001611a9a611a95611c99565b611cc2565b5f0181905550565b5f7f2a55205a000000000000000000000000000000000000000000000000000000007bffffffffffffffffffffffffffffffffffffffffffffffffffffffff1916827bffffffffffffffffffffffffffffffffffffffffffffffffffffffff19161480611b145750611b1382611dd1565b5b9050919050565b611b258282610dfa565b611b685780826040517fe2517d3f000000000000000000000000000000000000000000000000000000008152600401611b5f92919061362f565b60405180910390fd5b5050565b611b7885858585611eb2565b5f73ffffffffffffffffffffffffffffffffffffffff168473ffffffffffffffffffffffffffffffffffffffff1614611c11575f611bb461149e565b90506001845103611c00575f611bd35f866117e190919063ffffffff16565b90505f611be95f866117e190919063ffffffff16565b9050611bf9838989858589612245565b5050611c0f565b611c0e8187878787876123f4565b5b505b5050505050565b611c20610d8d565b611c56576040517f8dfc202b00000000000000000000000000000000000000000000000000000000815260040160405180910390fd5b565b611c606125a3565b15611c97576040517f3ee5aeb500000000000000000000000000000000000000000000000000000000815260040160405180910390fd5b565b5f7f9b779b17422d0df92223018b32b4d1fa46e071723d6817e2486d003becc55f005f1b905090565b5f819050919050565b5f73ffffffffffffffffffffffffffffffffffffffff168473ffffffffffffffffffffffffffffffffffffffff1603611d3b575f6040517f57f447ce000000000000000000000000000000000000000000000000000000008152600401611d329190613616565b60405180910390fd5b5f73ffffffffffffffffffffffffffffffffffffffff168573ffffffffffffffffffffffffffffffffffffffff1603611dab575f6040517f01a83514000000000000000000000000000000000000000000000000000000008152600401611da29190613616565b60405180910390fd5b5f5f611db785856125bf565b91509150611dc88787848487611b6c565b50505050505050565b5f7fd9b67a26000000000000000000000000000000000000000000000000000000007bffffffffffffffffffffffffffffffffffffffffffffffffffffffff1916827bffffffffffffffffffffffffffffffffffffffffffffffffffffffff19161480611e9b57507f0e89341c000000000000000000000000000000000000000000000000000000007bffffffffffffffffffffffffffffffffffffffffffffffffffffffff1916827bffffffffffffffffffffffffffffffffffffffffffffffffffffffff1916145b80611eab5750611eaa826125ef565b5b9050919050565b8051825114611efc57815181516040517f5b059991000000000000000000000000000000000000000000000000000000008152600401611ef3929190613457565b60405180910390fd5b5f611f0561149e565b90505f5f90505b8351811015612104575f611f2982866117e190919063ffffffff16565b90505f611f3f83866117e190919063ffffffff16565b90505f73ffffffffffffffffffffffffffffffffffffffff168873ffffffffffffffffffffffffffffffffffffffff1614612062575f5f5f8481526020019081526020015f205f8a73ffffffffffffffffffffffffffffffffffffffff1673ffffffffffffffffffffffffffffffffffffffff1681526020019081526020015f205490508181101561200e57888183856040517f03dee4c50000000000000000000000000000000000000000000000000000000081526004016120059493929190613656565b60405180910390fd5b8181035f5f8581526020019081526020015f205f8b73ffffffffffffffffffffffffffffffffffffffff1673ffffffffffffffffffffffffffffffffffffffff1681526020019081526020015f2081905550505b5f73ffffffffffffffffffffffffffffffffffffffff168773ffffffffffffffffffffffffffffffffffffffff16146120f757805f5f8481526020019081526020015f205f8973ffffffffffffffffffffffffffffffffffffffff1673ffffffffffffffffffffffffffffffffffffffff1681526020019081526020015f205f8282546120ef9190613232565b925050819055505b5050806001019050611f0c565b5060018351036121bf575f6121225f856117e190919063ffffffff16565b90505f6121385f856117e190919063ffffffff16565b90508573ffffffffffffffffffffffffffffffffffffffff168773ffffffffffffffffffffffffffffffffffffffff168473ffffffffffffffffffffffffffffffffffffffff167fc3d58168c5ae7397731d063d5bbf3d657854427343f4c083240f7aacaa2d0f6285856040516121b0929190613457565b60405180910390a4505061223e565b8373ffffffffffffffffffffffffffffffffffffffff168573ffffffffffffffffffffffffffffffffffffffff168273ffffffffffffffffffffffffffffffffffffffff167f4a39dc06d4c0dbc64b70af90fd698a233a518aa5d07e595d983b8c0526c8f7fb8686604051612235929190613699565b60405180910390a45b5050505050565b5f8473ffffffffffffffffffffffffffffffffffffffff163b11156123ec578373ffffffffffffffffffffffffffffffffffffffff1663f23a6e6187878686866040518663ffffffff1660e01b81526004016122a5959493929190613720565b6020604051808303815f875af19250505080156122e057506040513d601f19601f820116820180604052508101906122dd919061378c565b60015b612361573d805f811461230e576040519150601f19603f3d011682016040523d82523d5f602084013e612313565b606091505b505f81510361235957846040517f57f447ce0000000000000000000000000000000000000000000000000000000081526004016123509190613616565b60405180910390fd5b805160208201fd5b63f23a6e6160e01b7bffffffffffffffffffffffffffffffffffffffffffffffffffffffff1916817bffffffffffffffffffffffffffffffffffffffffffffffffffffffff1916146123ea57846040517f57f447ce0000000000000000000000000000000000000000000000000000000081526004016123e19190613616565b60405180910390fd5b505b505050505050565b5f8473ffffffffffffffffffffffffffffffffffffffff163b111561259b578373ffffffffffffffffffffffffffffffffffffffff1663bc197c8187878686866040518663ffffffff1660e01b81526004016124549594939291906137b7565b6020604051808303815f875af192505050801561248f57506040513d601f19601f8201168201806040525081019061248c919061378c565b60015b612510573d805f81146124bd576040519150601f19603f3d011682016040523d82523d5f602084013e6124c2565b606091505b505f81510361250857846040517f57f447ce0000000000000000000000000000000000000000000000000000000081526004016124ff9190613616565b60405180910390fd5b805160208201fd5b63bc197c8160e01b7bffffffffffffffffffffffffffffffffffffffffffffffffffffffff1916817bffffffffffffffffffffffffffffffffffffffffffffffffffffffff19161461259957846040517f57f447ce0000000000000000000000000000000000000000000000000000000081526004016125909190613616565b60405180910390fd5b505b505050505050565b5f60026125b66125b1611c99565b611cc2565b5f015414905090565b60608060405191506001825283602083015260408201905060018152826020820152604081016040529250929050565b5f7f01ffc9a7000000000000000000000000000000000000000000000000000000007bffffffffffffffffffffffffffffffffffffffffffffffffffffffff1916827bffffffffffffffffffffffffffffffffffffffffffffffffffffffff1916149050919050565b5f604051905090565b5f5ffd5b5f5ffd5b5f73ffffffffffffffffffffffffffffffffffffffff82169050919050565b5f61269282612669565b9050919050565b6126a281612688565b81146126ac575f5ffd5b50565b5f813590506126bd81612699565b92915050565b5f819050919050565b6126d5816126c3565b81146126df575f5ffd5b50565b5f813590506126f0816126cc565b92915050565b5f5f6040838503121561270c5761270b612661565b5b5f612719858286016126af565b925050602061272a858286016126e2565b9150509250929050565b61273d816126c3565b82525050565b5f6020820190506127565f830184612734565b92915050565b5f7fffffffff0000000000000000000000000000000000000000000000000000000082169050919050565b6127908161275c565b811461279a575f5ffd5b50565b5f813590506127ab81612787565b92915050565b5f602082840312156127c6576127c5612661565b5b5f6127d38482850161279d565b91505092915050565b5f8115159050919050565b6127f0816127dc565b82525050565b5f6020820190506128095f8301846127e7565b92915050565b5f6bffffffffffffffffffffffff82169050919050565b61282f8161280f565b8114612839575f5ffd5b50565b5f8135905061284a81612826565b92915050565b5f5f6040838503121561286657612865612661565b5b5f612873858286016126af565b92505060206128848582860161283c565b9150509250929050565b5f5ffd5b5f601f19601f8301169050919050565b7f4e487b71000000000000000000000000000000000000000000000000000000005f52604160045260245ffd5b6128d882612892565b810181811067ffffffffffffffff821117156128f7576128f66128a2565b5b80604052505050565b5f612909612658565b905061291582826128cf565b919050565b5f67ffffffffffffffff821115612934576129336128a2565b5b602082029050602081019050919050565b5f5ffd5b5f61295b6129568461291a565b612900565b9050808382526020820190506020840283018581111561297e5761297d612945565b5b835b818110156129a7578061299388826126e2565b845260208401935050602081019050612980565b5050509392505050565b5f82601f8301126129c5576129c461288e565b5b81356129d5848260208601612949565b91505092915050565b5f5f5f5f608085870312156129f6576129f5612661565b5b5f612a03878288016126af565b945050602085013567ffffffffffffffff811115612a2457612a23612665565b5b612a30878288016129b1565b935050604085013567ffffffffffffffff811115612a5157612a50612665565b5b612a5d878288016129b1565b9250506060612a6e878288016126e2565b91505092959194509250565b5f60208284031215612a8f57612a8e612661565b5b5f612a9c848285016126e2565b91505092915050565b5f81519050919050565b5f82825260208201905092915050565b8281835e5f83830152505050565b5f612ad782612aa5565b612ae18185612aaf565b9350612af1818560208601612abf565b612afa81612892565b840191505092915050565b5f6020820190508181035f830152612b1d8184612acd565b905092915050565b5f819050919050565b612b3781612b25565b8114612b41575f5ffd5b50565b5f81359050612b5281612b2e565b92915050565b5f60208284031215612b6d57612b6c612661565b5b5f612b7a84828501612b44565b91505092915050565b612b8c81612b25565b82525050565b5f602082019050612ba55f830184612b83565b92915050565b5f5f60408385031215612bc157612bc0612661565b5b5f612bce858286016126e2565b9250506020612bdf858286016126e2565b9150509250929050565b612bf281612688565b82525050565b5f604082019050612c0b5f830185612be9565b612c186020830184612734565b9392505050565b5f5ffd5b5f67ffffffffffffffff821115612c3d57612c3c6128a2565b5b612c4682612892565b9050602081019050919050565b828183375f83830152505050565b5f612c73612c6e84612c23565b612900565b905082815260208101848484011115612c8f57612c8e612c1f565b5b612c9a848285612c53565b509392505050565b5f82601f830112612cb657612cb561288e565b5b8135612cc6848260208601612c61565b91505092915050565b5f5f5f5f5f60a08688031215612ce857612ce7612661565b5b5f612cf5888289016126af565b9550506020612d06888289016126af565b945050604086013567ffffffffffffffff811115612d2757612d26612665565b5b612d33888289016129b1565b935050606086013567ffffffffffffffff811115612d5457612d53612665565b5b612d60888289016129b1565b925050608086013567ffffffffffffffff811115612d8157612d80612665565b5b612d8d88828901612ca2565b9150509295509295909350565b5f5f60408385031215612db057612daf612661565b5b5f612dbd85828601612b44565b9250506020612dce858286016126af565b9150509250929050565b5f67ffffffffffffffff821115612df257612df16128a2565b5b602082029050602081019050919050565b5f612e15612e1084612dd8565b612900565b90508083825260208201905060208402830185811115612e3857612e37612945565b5b835b81811015612e615780612e4d88826126af565b845260208401935050602081019050612e3a565b5050509392505050565b5f82601f830112612e7f57612e7e61288e565b5b8135612e8f848260208601612e03565b91505092915050565b5f5f60408385031215612eae57612ead612661565b5b5f83013567ffffffffffffffff811115612ecb57612eca612665565b5b612ed785828601612e6b565b925050602083013567ffffffffffffffff811115612ef857612ef7612665565b5b612f04858286016129b1565b9150509250929050565b5f81519050919050565b5f82825260208201905092915050565b5f819050602082019050919050565b612f40816126c3565b82525050565b5f612f518383612f37565b60208301905092915050565b5f602082019050919050565b5f612f7382612f0e565b612f7d8185612f18565b9350612f8883612f28565b805f5b83811015612fb8578151612f9f8882612f46565b9750612faa83612f5d565b925050600181019050612f8b565b5085935050505092915050565b5f6020820190508181035f830152612fdd8184612f69565b905092915050565b612fee816127dc565b8114612ff8575f5ffd5b50565b5f8135905061300981612fe5565b92915050565b5f5f6040838503121561302557613024612661565b5b5f613032858286016126af565b925050602061304385828601612ffb565b9150509250929050565b5f5f5f5f5f60a0868803121561306657613065612661565b5b5f613073888289016126e2565b9550506020613084888289016126e2565b9450506040613095888289016126e2565b93505060606130a6888289016126e2565b92505060806130b788828901612ffb565b9150509295509295909350565b5f5f604083850312156130da576130d9612661565b5b5f6130e7858286016126af565b92505060206130f8858286016126af565b9150509250929050565b5f5f5f5f5f60a0868803121561311b5761311a612661565b5b5f613128888289016126af565b9550506020613139888289016126af565b945050604061314a888289016126e2565b935050606061315b888289016126e2565b925050608086013567ffffffffffffffff81111561317c5761317b612665565b5b61318888828901612ca2565b9150509295509295909350565b5f6080820190506131a85f830187612734565b6131b56020830186612734565b6131c26040830185612734565b6131cf60608301846127e7565b95945050505050565b7f4e487b71000000000000000000000000000000000000000000000000000000005f52603260045260245ffd5b7f4e487b71000000000000000000000000000000000000000000000000000000005f52601160045260245ffd5b5f61323c826126c3565b9150613247836126c3565b925082820190508082111561325f5761325e613205565b5b92915050565b7f45786365656473206d6178207065722077616c6c6574000000000000000000005f82015250565b5f613299601683612aaf565b91506132a482613265565b602082019050919050565b5f6020820190508181035f8301526132c68161328d565b9050919050565b7f4e487b71000000000000000000000000000000000000000000000000000000005f52602260045260245ffd5b5f600282049050600182168061331157607f821691505b602082108103613324576133236132cd565b5b50919050565b7f416c72656164792072656465656d6564000000000000000000000000000000005f82015250565b5f61335e601083612aaf565b91506133698261332a565b602082019050919050565b5f6020820190508181035f83015261338b81613352565b9050919050565b5f61339c826126c3565b91506133a7836126c3565b92508282026133b5816126c3565b915082820484148315176133cc576133cb613205565b5b5092915050565b7f4e487b71000000000000000000000000000000000000000000000000000000005f52601260045260245ffd5b5f61340a826126c3565b9150613415836126c3565b925082613425576134246133d3565b5b828204905092915050565b5f6040820190506134435f830185612be9565b6134506020830184612be9565b9392505050565b5f60408201905061346a5f830185612734565b6134776020830184612734565b9392505050565b7f5469636b6574206e6f74207472616e7366657261626c650000000000000000005f82015250565b5f6134b2601783612aaf565b91506134bd8261347e565b602082019050919050565b5f6020820190508181035f8301526134df816134a6565b9050919050565b7f5472616e73666572206c6f636b656400000000000000000000000000000000005f82015250565b5f61351a600f83612aaf565b9150613525826134e6565b602082019050919050565b5f6020820190508181035f8301526135478161350e565b9050919050565b7f5469636b657420616c72656164792072656465656d65640000000000000000005f82015250565b5f613582601783612aaf565b915061358d8261354e565b602082019050919050565b5f6020820190508181035f8301526135af81613576565b9050919050565b5f819050919050565b5f6135d96135d46135cf8461280f565b6135b6565b6126c3565b9050919050565b6135e9816135bf565b82525050565b5f6040820190506136025f8301856135e0565b61360f6020830184612734565b9392505050565b5f6020820190506136295f830184612be9565b92915050565b5f6040820190506136425f830185612be9565b61364f6020830184612b83565b9392505050565b5f6080820190506136695f830187612be9565b6136766020830186612734565b6136836040830185612734565b6136906060830184612734565b95945050505050565b5f6040820190508181035f8301526136b18185612f69565b905081810360208301526136c58184612f69565b90509392505050565b5f81519050919050565b5f82825260208201905092915050565b5f6136f2826136ce565b6136fc81856136d8565b935061370c818560208601612abf565b61371581612892565b840191505092915050565b5f60a0820190506137335f830188612be9565b6137406020830187612be9565b61374d6040830186612734565b61375a6060830185612734565b818103608083015261376c81846136e8565b90509695505050505050565b5f8151905061378681612787565b92915050565b5f602082840312156137a1576137a0612661565b5b5f6137ae84828501613778565b91505092915050565b5f60a0820190506137ca5f830188612be9565b6137d76020830187612be9565b81810360408301526137e98186612f69565b905081810360608301526137fd8185612f69565b9050818103608083015261381181846136e8565b9050969550505050505056fea2646970667358221220172085d82aebd9dfda640b6e520c052d1a7ca51681ed865b6b9ea66d97e7517164736f6c634300081e0033","linkReferences":{}},"methodIdentifiers":{"DEFAULT_ADMIN_ROLE()":"a217fddf","MINTER_ROLE()":"d5391393","ORGANIZER_ROLE()":"7909cb59","balanceOf(address,uint256)":"00fdd58e","balanceOfBatch(address[],uint256[])":"4e1273f4","eventRules(uint256)":"f2c030ec","getRoleAdmin(bytes32)":"248a9ca3","grantRole(bytes32,address)":"2f2ff15d","hasRole(bytes32,address)":"91d14854","isApprovedForAll(address,address)":"e985e9c5","mintBatch(address,uint256[],uint256[],uint256)":"09f3e20b","pause()":"8456cb59","paused()":"5c975abb","redeemTicket(uint256)":"15f59d7f","redeemed(uint256)":"7ed0f1c1","renounceRole(bytes32,address)":"36568abe","revokeRole(bytes32,address)":"d547741f","royaltyInfo(uint256,uint256)":"2a55205a","safeBatchTransferFrom(address,address,uint256[],uint256[],bytes)":"2eb2c2d6","safeTransferFrom(address,address,uint256,uint256,bytes)":"f242432a","setApprovalForAll(address,bool)":"a22cb465","setDefaultRoyalty(address,uint96)":"04634d8d","setEventRules(uint256,uint256,uint256,uint256,bool)":"b7ea36a4","supportsInterface(bytes4)":"01ffc9a7","ticketsClaimed(address,uint256)":"36ce9c8f","unpause()":"3f4ba83a","uri(uint256)":"0e89341c"},"id":43}