{"abi":[{"type":"constructor","inputs":[],"stateMutability":"nonpayable"},{"type":"function","name":"addVerifier","inputs":[{"name":"verifier","type":"address","internalType":"address"}],"outputs":[],"stateMutability":"nonpayable"},{"type":"function","name":"batchVerifyUsers","inputs":[{"name":"users","type":"address[]","internalType":"address[]"},{"name":"levels","type":"uint8[]","internalType":"enum UserVerification.VerificationLevel[]"},{"name":"durations","type":"uint256[]","internalType":"uint256[]"}],"outputs":[],"stateMutability":"nonpayable"},{"type":"function","name":"hasLevel","inputs":[{"name":"user","type":"address","internalType":"address"},{"name":"requiredLevel","type":"uint8","internalType":"enum UserVerification.VerificationLevel"}],"outputs":[{"name":"","type":"bool","internalType":"bool"}],"stateMutability":"view"},{"type":"function","name":"isVerified","inputs":[{"name":"user","type":"address","internalType":"address"}],"outputs":[{"name":"","type":"bool","internalType":"bool"}],"stateMutability":"view"},{"type":"function","name":"isVerifier","inputs":[{"name":"","type":"address","internalType":"address"}],"outputs":[{"name":"","type":"bool","internalType":"bool"}],"stateMutability":"view"},{"type":"function","name":"owner","inputs":[],"outputs":[{"name":"","type":"address","internalType":"address"}],"stateMutability":"view"},{"type":"function","name":"removeVerifier","inputs":[{"name":"verifier","type":"address","internalType":"address"}],"outputs":[],"stateMutability":"nonpayable"},{"type":"function","name":"renounceOwnership","inputs":[],"outputs":[],"stateMutability":"nonpayable"},{"type":"function","name":"suspendUser","inputs":[{"name":"user","type":"address","internalType":"address"}],"outputs":[],"stateMutability":"nonpayable"},{"type":"function","name":"transferOwnership","inputs":[{"name":"newOwner","type":"address","internalType":"address"}],"outputs":[],"stateMutability":"nonpayable"},{"type":"function","name":"unsuspendUser","inputs":[{"name":"user","type":"address","internalType":"address"}],"outputs":[],"stateMutability":"nonpayable"},{"type":"function","name":"userStatus","inputs":[{"name":"","type":"address","internalType":"address"}],"outputs":[{"name":"level","type":"uint8","internalType":"enum UserVerification.VerificationLevel"},{"name":"expiry","type":"uint256","internalType":"uint256"},{"name":"isSuspended","type":"bool","internalType":"bool"}],"stateMutability":"view"},{"type":"function","name":"verifyUser","inputs":[{"name":"user","type":"address","internalType":"address"},{"name":"level","type":"uint8","internalType":"enum UserVerification.VerificationLevel"},{"name":"durationSeconds","type":"uint256","internalType":"uint256"}],"outputs":[],"stateMutability":"nonpayable"},{"type":"event","name":"OwnershipTransferred","inputs":[{"name":"previousOwner","type":"address","indexed":true,"internalType":"address"},{"name":"newOwner","type":"address","indexed":true,"internalType":"address"}],"anonymous":false},{"type":"event","name":"UserSuspended","inputs":[{"name":"user","type":"address","indexed":true,"internalType":"address"}],"anonymous":false},{"type":"event","name":"UserUnsuspended","inputs":[{"name":"user","type":"address","indexed":true,"internalType":"address"}],"anonymous":false},{"type":"event","name":"UserVerified","inputs":[{"name":"user","type":"address","indexed":true,"internalType":"address"},{"name":"level","type":"uint8","indexed":false,"internalType":"enum UserVerification.VerificationLevel"},{"name":"expiry","type":"uint256","indexed":false,"internalType":"uint256"}],"anonymous":false},{"type":"event","name":"VerifierAdded","inputs":[{"name":"verifier","type":"address","indexed":true,"internalType":"address"}],"anonymous":false},{"type":"event","name":"VerifierRemoved","inputs":[{"name":"verifier","type":"address","indexed":true,"internalType":"address"}],"anonymous":false},{"type":"error","name":"OwnableInvalidOwner","inputs":[{"name":"owner","type":"address","internalType":"address"}]},{"type":"error","name":"OwnableUnauthorizedAccount","inputs":[{"name":"account","type":"address","internalType":"address"}]}],"bytecode":{"object":"0x608060405234610027576100116100dd565b61001961002c565b61157761027d823961157790f35b610032565b60405190565b5f80fd5b60018060a01b031690565b90565b61005861005361005d92610036565b610041565b610036565b90565b61006990610044565b90565b61007590610060565b90565b906100829061006c565b5f5260205260405f2090565b5f1b90565b9061009f60ff9161008e565b9181191691161790565b151590565b6100b7906100a9565b90565b90565b906100d26100cd6100d9926100ae565b6100ba565b8254610093565b9055565b6100e633610157565b6100fc60016100f760023390610078565b6100bd565b565b90565b61011561011061011a926100fe565b610041565b610036565b90565b61012690610101565b90565b61013290610036565b90565b61013e90610129565b9052565b9190610155905f60208501940190610135565b565b8061017261016c6101675f61011d565b610129565b91610129565b14610182576101809061021d565b565b6101a561018e5f61011d565b5f918291631e4fbdf760e01b835260048301610142565b0390fd5b5f1c90565b60018060a01b031690565b6101c56101ca916101a9565b6101ae565b90565b6101d790546101b9565b90565b906101eb60018060a01b039161008e565b9181191691161790565b90565b9061020d6102086102149261006c565b6101f5565b82546101da565b9055565b5f0190565b6102265f6101cd565b610230825f6101f8565b9061026461025e7f8be0079c531659141344cd1fd0a4f28419497f9722a3daafe3b4186f6b6457e09361006c565b9161006c565b9161026d61002c565b8061027781610218565b0390a356fe60806040526004361015610013575b610835565b61001d5f356100ec565b80631e153acb146100e7578063225d29a1146100e2578063241cb5b9146100dd578063263dc2f0146100d857806333105218146100d3578063715018a6146100ce5780637b887284146100c95780638da5cb5b146100c45780639000b3d6146100bf578063b9209e33146100ba578063ca2dfd0a146100b5578063cddc32a4146100b05763f2fde38b0361000e57610802565b6107cf565b61079c565b610767565b610734565b6106ff565b6106a3565b610521565b6104dd565b61044e565b6103d8565b610326565b610161565b60e01c90565b60405190565b5f80fd5b5f80fd5b5f80fd5b60018060a01b031690565b61011890610104565b90565b6101248161010f565b0361012b57565b5f80fd5b9050359061013c8261011b565b565b9060208282031261015757610154915f0161012f565b90565b6100fc565b5f0190565b3461018f5761017961017436600461013e565b6108f1565b6101816100f2565b8061018b8161015c565b0390f35b6100f8565b90565b6101ab6101a66101b092610104565b610194565b610104565b90565b6101bc90610197565b90565b6101c8906101b3565b90565b906101d5906101bf565b5f5260205260405f2090565b5f1c90565b60ff1690565b6101f86101fd916101e1565b6101e6565b90565b61020a90546101ec565b90565b90565b61021c610221916101e1565b61020d565b90565b61022e9054610210565b90565b60ff1690565b610243610248916101e1565b610231565b90565b6102559054610237565b90565b6102639060016101cb565b61026e5f8201610200565b91610287600261028060018501610224565b930161024b565b90565b634e487b7160e01b5f52602160045260245ffd5b600411156102a857565b61028a565b906102b78261029e565b565b6102c2906102ad565b90565b6102ce906102b9565b9052565b90565b6102de906102d2565b9052565b151590565b6102f0906102e2565b9052565b60409061031d610324949695939661031360608401985f8501906102c5565b60208301906102d5565b01906102e7565b565b346103595761035561034161033c36600461013e565b610258565b61034c9391936100f2565b938493846102f4565b0390f35b6100f8565b6004111561036857565b5f80fd5b905035906103798261035e565b565b610384816102d2565b0361038b57565b5f80fd5b9050359061039c8261037b565b565b90916060828403126103d3576103d06103b9845f850161012f565b936103c7816020860161036c565b9360400161038f565b90565b6100fc565b34610407576103f16103eb36600461039e565b91610c49565b6103f96100f2565b806104038161015c565b0390f35b6100f8565b91906040838203126104345780610428610431925f860161012f565b9360200161036c565b90565b6100fc565b919061044c905f602085019401906102e7565b565b3461047f5761047b61046a61046436600461040c565b90610cc4565b6104726100f2565b91829182610439565b0390f35b6100f8565b9061048e906101bf565b5f5260205260405f2090565b1c90565b6104ae9060086104b3930261049a565b610231565b90565b906104c1915461049e565b90565b6104da906104d56002915f92610484565b6104b6565b90565b3461050d576105096104f86104f336600461013e565b6104c4565b6105006100f2565b91829182610439565b0390f35b6100f8565b5f91031261051c57565b6100fc565b3461054f57610531366004610512565b610539610da7565b6105416100f2565b8061054b8161015c565b0390f35b6100f8565b5f80fd5b5f80fd5b5f80fd5b909182601f8301121561059a5781359167ffffffffffffffff831161059557602001926020830284011161059057565b61055c565b610558565b610554565b909182601f830112156105d95781359167ffffffffffffffff83116105d45760200192602083028401116105cf57565b61055c565b610558565b610554565b909182601f830112156106185781359167ffffffffffffffff831161061357602001926020830284011161060e57565b61055c565b610558565b610554565b9060608282031261069e575f82013567ffffffffffffffff81116106995781610647918401610560565b929093602082013567ffffffffffffffff8111610694578361066a91840161059f565b929093604082013567ffffffffffffffff811161068f5761068b92016105de565b9091565b610100565b610100565b610100565b6100fc565b346106d8576106c26106b636600461061d565b949390939291926110c5565b6106ca6100f2565b806106d48161015c565b0390f35b6100f8565b6106e69061010f565b9052565b91906106fd905f602085019401906106dd565b565b3461072f5761070f366004610512565b61072b61071a611105565b6107226100f2565b918291826106ea565b0390f35b6100f8565b346107625761074c61074736600461013e565b611185565b6107546100f2565b8061075e8161015c565b0390f35b6100f8565b346107975761079361078261077d36600461013e565b611190565b61078a6100f2565b91829182610439565b0390f35b6100f8565b346107ca576107b46107af36600461013e565b611288565b6107bc6100f2565b806107c68161015c565b0390f35b6100f8565b346107fd576107e76107e236600461013e565b611300565b6107ef6100f2565b806107f98161015c565b0390f35b6100f8565b346108305761081a61081536600461013e565b611370565b6108226100f2565b8061082c8161015c565b0390f35b6100f8565b5f80fd5b61084a906108456113fd565b610896565b565b5f1b90565b9061085d60ff9161084c565b9181191691161790565b610870906102e2565b90565b90565b9061088b61088661089292610867565b610873565b8254610851565b9055565b6108af600160026108a9600185906101cb565b01610876565b6108d97f904d1985d199946aad94a6990736c4602adcc5b717b04d0436ed05446b07169d916101bf565b906108e26100f2565b806108ec8161015c565b0390a2565b6108fa90610839565b565b9061090f929161090a6113fd565b610b8e565b565b60209181520190565b5f7f496e76616c6964206c6576656c00000000000000000000000000000000000000910152565b61094e600d602092610911565b6109578161091a565b0190565b6109709060208101905f818303910152610941565b90565b1561097a57565b6109826100f2565b62461bcd60e51b8152806109986004820161095b565b0390fd5b634e487b7160e01b5f52601160045260245ffd5b6109bf6109c5919392936102d2565b926102d2565b82018092116109d057565b61099c565b601f801991011690565b634e487b7160e01b5f52604160045260245ffd5b906109fd906109d5565b810190811067ffffffffffffffff821117610a1757604052565b6109df565b90610a2f610a286100f2565b92836109f3565b565b610a3b6060610a1c565b90565b90610a48906102ad565b9052565b90610a56906102d2565b9052565b90610a64906102e2565b9052565b610a7290516102ad565b90565b610a7e906102ad565b90565b90565b90610a99610a94610aa092610a75565b610a81565b8254610851565b9055565b610aae90516102d2565b90565b90610abd5f199161084c565b9181191691161790565b610adb610ad6610ae0926102d2565b610194565b6102d2565b90565b90565b90610afb610af6610b0292610ac7565b610ae3565b8254610ab1565b9055565b610b1090516102e2565b90565b90610b5760406002610b5d94610b365f8201610b305f8801610a68565b90610a84565b610b4f60018201610b4960208801610aa4565b90610ae6565b019201610b06565b90610876565b565b90610b6991610b13565b565b916020610b8c929493610b8560408201965f8301906102c5565b01906102d5565b565b610c0590610baf83610ba8610ba25f6102ad565b916102ad565b1415610973565b610bfd83610bec610bc14288906109b0565b610be35f91610bda610bd1610a31565b955f8701610a3e565b60208501610a4c565b60408301610a5a565b610bf8600184906101cb565b610b5f565b9192426109b0565b610c2f7f56eda27b1d94a14873cc23b39b222a4117c014385ffd4537072f90767b08061b926101bf565b92610c44610c3b6100f2565b92839283610b6b565b0390a2565b90610c5492916108fc565b565b5f90565b610c646060610a1c565b90565b90610cb6610cad6002610c78610c5a565b94610c8f610c875f8301610200565b5f8801610a3e565b610ca7610c9e60018301610224565b60208801610a4c565b0161024b565b60408401610a5a565b565b610cc190610c67565b90565b610cdb610ce091610cd3610c56565b5060016101cb565b610cb8565b90610cf6610cf060408401610b06565b156102e2565b9081610d30575b509081610d09575b5090565b9050610d29610d23610d1e6020429401610aa4565b6102d2565b916102d2565b105f610d05565b9050610d4f610d49610d435f8501610a68565b926102ad565b916102ad565b10155f610cfd565b610d5f611449565b610d67610d94565b565b90565b610d80610d7b610d8592610d69565b610194565b610104565b90565b610d9190610d6c565b90565b610da5610da05f610d88565b6114d5565b565b610daf610d57565b565b90610dc79594939291610dc26113fd565b610efc565b565b5090565b5090565b5090565b5f7f4c656e677468206d69736d617463680000000000000000000000000000000000910152565b610e09600f602092610911565b610e1281610dd5565b0190565b610e2b9060208101905f818303910152610dfc565b90565b15610e3557565b610e3d6100f2565b62461bcd60e51b815280610e5360048201610e16565b0390fd5b610e6b610e66610e7092610d69565b610194565b6102d2565b90565b6001610e7f91016102d2565b90565b634e487b7160e01b5f52603260045260245ffd5b9190811015610ea6576020020190565b610e82565b35610eb58161035e565b90565b9190811015610ec8576020020190565b610e82565b35610ed78161037b565b90565b9190811015610eea576020020190565b610e82565b35610ef98161011b565b90565b95949391929095610f0e818890610dc9565b610f2a610f24610f1f878690610dcd565b6102d2565b916102d2565b1480611092575b610f3a90610e2e565b610f435f610e57565b5b80610f61610f5b610f56858c90610dc9565b6102d2565b916102d2565b10156110885761108390610ff5610f82610f7d88878591610e96565b610eab565b610fcf610fa442610f9e610f998d8c908991610eb8565b610ecd565b906109b0565b610fc65f91610fbd610fb4610a31565b955f8701610a3e565b60208501610a4c565b60408301610a5a565b610ff08b610fea610fe560019289908891610eda565b610eef565b906101cb565b610b5f565b611009611004848b8491610eda565b610eef565b61101d61101888878591610e96565b610eab565b9061103c426110366110318a8d8891610eb8565b610ecd565b906109b0565b6110667f56eda27b1d94a14873cc23b39b222a4117c014385ffd4537072f90767b08061b926101bf565b9261107b6110726100f2565b92839283610b6b565b0390a2610e73565b610f44565b5050505050509050565b50610f3a6110a1858490610dcd565b6110bd6110b76110b2878a90610dd1565b6102d2565b916102d2565b149050610f31565b906110d39594939291610db1565b565b5f90565b60018060a01b031690565b6110f06110f5916101e1565b6110d9565b90565b61110290546110e4565b90565b61110d6110d5565b506111175f6110f8565b90565b61112b90611126611449565b61112d565b565b611143600161113e60028490610484565b610876565b61116d7f6d05492139c5ea989514a5d2150c028041e5c087e2a39967f67dc7d2655adb81916101bf565b906111766100f2565b806111808161015c565b0390a2565b61118e9061111a565b565b6111a76111ac9161119f610c56565b5060016101cb565b610cb8565b6111c16111bb60408301610b06565b156102e2565b806111f9575b90816111d2575b5090565b90506111f26111ec6111e76020429401610aa4565b6102d2565b916102d2565b105f6111ce565b506112055f8201610a68565b6112176112115f6102ad565b916102ad565b14156111c7565b61122f9061122a611449565b611231565b565b6112465f61124160028490610484565b610876565b6112707f44a3cd4eb5cc5748f6169df057b1cb2ae4c383e87cd94663c430e095d4cba424916101bf565b906112796100f2565b806112838161015c565b0390a2565b6112919061121e565b565b6112a49061129f6113fd565b6112a6565b565b6112be5f60026112b8600185906101cb565b01610876565b6112e87fe4e564309ef4b126118f8c44a71f875f3bb146977a4fe7e606943d669a3f0634916101bf565b906112f16100f2565b806112fb8161015c565b0390a2565b61130990611293565b565b61131c90611317611449565b61131e565b565b8061133961133361132e5f610d88565b61010f565b9161010f565b1461134957611347906114d5565b565b61136c6113555f610d88565b5f918291631e4fbdf760e01b8352600483016106ea565b0390fd5b6113799061130b565b565b5f7f4e6f7420617574686f72697a6564207665726966696572000000000000000000910152565b6113af6017602092610911565b6113b88161137b565b0190565b6113d19060208101905f8183039101526113a2565b90565b156113db57565b6113e36100f2565b62461bcd60e51b8152806113f9600482016113bc565b0390fd5b61141161140c60023390610484565b61024b565b8015611423575b611421906113d4565b565b506114213361144161143b611436611105565b61010f565b9161010f565b149050611418565b611451611105565b61146a61146461145f611534565b61010f565b9161010f565b0361147157565b61149361147c611534565b5f91829163118cdaa760e01b8352600483016106ea565b0390fd5b906114a860018060a01b039161084c565b9181191691161790565b90565b906114ca6114c56114d1926101bf565b6114b2565b8254611497565b9055565b6114de5f6110f8565b6114e8825f6114b5565b9061151c6115167f8be0079c531659141344cd1fd0a4f28419497f9722a3daafe3b4186f6b6457e0936101bf565b916101bf565b916115256100f2565b8061152f8161015c565b0390a3565b61153c6110d5565b50339056fea26469706673582212201c680764df35511de6d07ac1c43823cefdc20882a6f9418e6798e642f8d3a32464736f6c634300081e0033","linkReferences":{}},"methodIdentifiers":{"addVerifier(address)":"9000b3d6","batchVerifyUsers(address[],uint8[],uint256[])":"7b887284","hasLevel(address,uint8)":"263dc2f0","isVerified(address)":"b9209e33","isVerifier(address)":"33105218","owner()":"8da5cb5b","removeVerifier(address)":"ca2dfd0a","renounceOwnership()":"715018a6","suspendUser(address)":"1e153acb","transferOwnership(address)":"f2fde38b","unsuspendUser(address)":"cddc32a4","userStatus(address)":"225d29a1","verifyUser(address,uint8,uint256)":"241cb5b9"},"id":55}